:100000000C94DA190C94FB190C94FB190C94FB1941
:100010000C94FB190C94FB190C94FB190C94FB1910
:100020000C94FB190C94FB190C94FB190C94FB1900
:100030000C94FB190C94FB190C94A7260C94D42651
:100040000C9401270C942E270C945B270C94882782
:100050000C94B5270C94E2270C940F280C943C28A0
:100060000C94FB190C94FB190C94FB190C94FB19C0
:100070000C94FB190C94FB190C94FB190C94FB19B0
:100080000C94FB190C94FB190C94FB190C94FB19A0
:100090000C94FB190C94FB190C94FB190C94FB1990
:1000A0000C94FB190C94FB190C94FB190C94FB1980
:1000B0000C94FB190C94FB190C94FB190C947729E4
:1000C0000C94A4290C94D1290C94FE290C942B2A6D
:1000D0000C94582A0C94FB190C94FB190C94FB19E2
:1000E0000C94FB190C94FB190C94FB190C94FB1940
:1000F0000C94FB190C94FB190C94FB190C94FB1930
:100100000C94FB190C94FB190C94FB190C94FB191F
:100110000C94FB190C94FB190C94FB190C943E1EC7
:100120000C94FB190C94FB190C94FB190C94FB19FF
:100130000C94FB190C9469280C9496280C94C328F1
:100140000C94F0280C941D290C944A290C94FB194A
:100150000C94FB190C94FB190C94FB190C94FB19CF
:100160000C94FB190C94FB190C94FB190C94FB19BF
:100170000C94FB190C94FB190C94FB190C94FB19AF
:100180000C94FB190C94FB190C94FB190C94FB199F
:100190000C94FB190C94FB190C94FB190C94FB198F
:1001A0000C941B330C94FB190C94FB190C94FB1945
:1001B0000C94852A0C94B22A0C94DF2A0C940C2BF4
:1001C0000C94392B0C94662B0C94FB190C94FB1992
:1001D0000C94FB190C94FB190C94FB190C94FB194F
:1001E0000C94FB190C94FB190C94FB190C94FB193F
:1001F0000C94FB190C94FB190C94FB190C1A121A91
:10020000181A1E1A241A2A1A301A361A3C1A421AB6
:10021000481A4E1A541A5A1A601A661A6C1A721A26
:10022000781A7E1A841A8A1A901A961A9C1AA21A96
:10023000A81AAE1AB41ABA1AC01AC61ACC1AD21A06
:10024000D81ADE1AE41AEA1AF01AF61AFC1A021B75
:10025000081B0E1B141B1A1B201B261B2C1B321BDE
:10026000381B3E1B441B4A1B501B561B5C1B621B4E
:10027000681B6E1B741B7A1B801B861B8C1B921BBE
:10028000981B9E1BA41BAA1BB01BB61BBC1BC21B2E
:10029000C81BCE1BD41BDA1BE01BE61BEC1BF21B9E
:1002A000F81BFE1B041C0A1C101C161C1C1C221C08
:1002B000281C2E1C341C3A1C401C161F1C1F221FFD
:1002C000281F2E1F341F3A1F401F461F4C1F521F4E
:1002D000581F5E1F641F6A1F701F761F7C1F821FBE
:1002E000881F8E1F941F9A1FA01FA61FAC1FB21F2E
:1002F000B81FBE1FC41FCA1FD01FD61FDC1FE21F9E
:10030000E81FEE1FF41FFA1F002006200C20122009
:1003100018201E2024202A20302036203C20422075
:1003200048204E2054205A20602066206C207220E5
:1003300078207E2084208A20902096209C20A22055
:10034000A820AE20B420BA20C020C620CC20D220C5
:10035000D820DE20E420EA20F020F620FC20022134
:1003600008210E2114211A21202126212C2132219D
:1003700038213E2144214A2108000000BE92244930
:10038000123EABAAAA2ABECDCCCC4C3E00000080C7
:10039000BEABAAAAAA3E00000000BF000000803F3A
:1003A0000000000000084178D3BB4387D1133D19FA
:1003B0000E3CC3BD4282AD2B3E68EC8276BED98F27
:1003C000E1A93E4C80EFFFBE01C4FF7F3F0000006B
:1003D000000000000000000000000000000000001D
:1003E000000000000000000000000000000000000D
:1003F00000000000000000000000000000000000FD
:1004000000000000000000000000000000000000EC
:1004100000000000000000000000000000000000DC
:1004200000000000000000000000000000000000CC
:1004300000000000000000000000000000000000BC
:1004400000000000000000000000000000000000AC
:10045000000000000000000000000000000000009C
:10046000000000000000000000000000000000008C
:1004700000007FFFFC000000000000000000000002
:10048000000000000000000000000000000000006C
:10049000000000000000000000000000000000005C
:1004A0000000003FFFFFFFFC000000000000000014
:1004B000000000000000000000000000000000003C
:1004C000000000000000000000000000000000002C
:1004D0000000000003FFFFFFFFFFC000000000005E
:1004E000000000000000000000000000000000000C
:1004F00000000000000000000000000000000000FC
:100500000000000000000FFFFFF000FFFC000000F3
:1005100000000000000000000000000000000000DB
:1005200000000000000000000000000000000000CB
:100530000000000000000000FFFFF8000000FFC006
:1005400000000000000000000000000000000000AB
:10055000000000000000000000000000000000009B
:1005600000000000000000000001FFFF800000000C
:1005700003F8000000000000000000000000000080
:10058000000000000000000000000000000000006B
:1005900000000000000000000000000FFFF8000055
:1005A0000000003F0000000000000000000000000C
:1005B000000000000000000000000000000000003B
:1005C000000000000000000000000000003FFFC02D
:1005D000000000000003E000000000000000000038
:1005E000000000000000000000000000000000000B
:1005F0000000000000000000000000000000007F7C
:10060000FF000000000000003C00000000000000AF
:1006100000000000000000000000000000000000DA
:1006200000000000000000000000000000000000CA
:1006300001FFFC000000000000000F0000000000AF
:1006400000000000000000000000000000000000AA
:10065000000000000000000000000000000000009A
:10066000000003FFF00000000000000001E00000B7
:10067000000000000000000000000000000000007A
:10068000000000000000000000000000000000006A
:10069000000000000FFFC000000000000000003854
:1006A000000000000000000000000000000000004A
:1006B000000000000000000000000000000000003A
:1006C0000000000000001FFF80000000000000008C
:1006D000000E00000000000000000000000000000C
:1006E000000000000000000000000000000000000A
:1006F00000000000000000003FFE000000000000BD
:100700000000000180000000000000000000000068
:1007100000000000000000000000000000000000D9
:10072000000000000000000000007FFC000000004E
:100730000000000000007000000000000000000049
:1007400000000000000000000000000000000000A9
:10075000000000000000000000000000FFF00000AA
:100760000000000000000000180000000000000071
:100770000000000000000000000000000000000079
:100780000000000000000000000000000001FFE089
:100790000000000000000000000006000000000053
:1007A0000000000000000000000000000000000049
:1007B0000000000000000000000000000000000336
:1007C000FFC00000000000000000000001800000E9
:1007D0000000000000000000000000000000000019
:1007E0000000000000000000000000000000000009
:1007F0000007FF8000000000000000000000006013
:1008000000000000000000000000000000000000E8
:1008100000000000000000000000000000000000D8
:100820000000000FFF0000000000000000000000BA
:1008300000180000000000000000000000000000A0
:1008400000000000000000000000000000000000A8
:1008500000000000001FFE0000000000000000007B
:100860000000000400000000000000000000000084
:100870000000000000000000000000000000000078
:10088000000000000000001FFE000000000000004B
:100890000000000000010000000000000000000057
:1008A0000000000000000000000000000000000048
:1008B0000000000000000000003FFC0000000000FD
:1008C00000000000000000004000000000000000E8
:1008D0000000000000000000000000000000000018
:1008E00000000000000000000000007FF800000091
:1008F00000000000000000000000200000000000D8
:1009000000000000000000000000000000000000E7
:10091000000000000000000000000000007FF00068
:1009200000000000000000000000000008000000BF
:1009300000000000000000000000000000000000B7
:10094000000000000000000000000000000000FFA8
:10095000F0000000000000000000000000000400A3
:100960000000000000000000000000000000000087
:100970000000000000000000000000000000000077
:1009800000FFE00000000000000000000000000088
:100990000100000000000000000000000000000056
:1009A0000000000000000000000000000000000047
:1009B000000001FFC0000000000000000000000077
:1009C0000000000000000000000000000000000027
:1009D0000000000000000000000000000000000017
:1009E0000000000001FFC000000000000000000047
:1009F00000000000000000000000000000000000F7
:100A000000000000000000000000000000000000E6
:100A100000000000000003FF800000000000000054
:100A200000000000000000000000000000000000C6
:100A300000000000000000000000000000000000B6
:100A4000000000000000000003FF80000000000024
:100A50000000000000000000000000000000000096
:100A60000000000000000000000000000000000086
:100A70000000000000000000000003FF0000000074
:100A80000000000000000000000000000000000066
:100A90000000000000000000000000000000000056
:100AA00000000000000000000000000007FF000040
:100AB0000000000000000000000000000000000036
:100AC0000000000000000000000000000000000026
:100AD000000000000000000000000000000007FF10
:100AE0000000000000000000000000000000000006
:100AF00000000000000000000000000000000000F6
:100B000000000000000000000000000000000000E5
:100B10000FFE0000000000000000000000000000C8
:100B200000000000000000000000000000000000C5
:100B300000000000000000000000000000000000B5
:100B400000000FFE00000000000000000000000098
:100B50000000000000000000000000000000000095
:100B60000000000000000000000000000000000085
:100B7000000000000FFE0000000000000000000068
:100B80000000000000000000000000000000000065
:100B90000000000000000000000000000000000055
:100BA0000000000000001FFC00000000000000002A
:100BB0000000000000000000000000000000000035
:100BC0000000000000000000000000000000000025
:100BD00000000000000000001FFC000000000000FA
:100BE0000000000000000000000000000000000005
:100BF00000000000000000000000000000000000F5
:100C0000000000000000000000001FFC00000000C9
:100C100000000000000000000000000000000000D4
:100C200000000000000000000000000000000000C4
:100C30000000000000000000000000001FF800009D
:100C400000000000000000000000000000000000A4
:100C50000000000000000000000000000000000094
:100C600000000000000000000000000000001FF86D
:100C70000000000000000000000000000000000074
:100C80000000000000000000000000000000000064
:100C90000000000000000000000000000000000054
:100CA0003FF800000000000000000000000000000D
:100CB0000000000000000000000000000000000034
:100CC0000000000000000000000000000000000024
:100CD00000003FF8000000000000000000000000DD
:100CE0000000000000000000000000000000000004
:100CF00000000000000000000000000000000000F4
:100D0000000000003FF800000000000000000000AC
:100D100000000000000000000000000000000000D3
:100D200000000000000000000000000000000000C3
:100D30000000000000003FF800000000000000007C
:100D40000000FFE0000000000000000000000000C4
:100D50000000000000000000000000000000000093
:100D600000000000000000003FF80000000000004C
:100D700000000000FFE00000000000000000000094
:100D80000000000000000000000000000000000063
:100D9000000000000000000000003FF00000000024
:100DA000000000000000FFE0000000000000000064
:100DB0000000000000000000000000000000000033
:100DC0000000000000000000000000003FF00000F4
:100DD0000000000000000000FFE000000000000034
:100DE0000000000000000000000000000000000003
:100DF00000000000000000000000000000003FF0C4
:100E000000000000000000000000FFE00000000003
:100E100000000000000000000000000000000000D2
:100E200000000000000000000000000000000000C2
:100E30003FF000000000000000000000FFE00000A4
:100E400000000000000000000000000000000000A2
:100E50000000000000000000000000000000000092
:100E600000003FF000000000000000000000FFE074
:100E70000000000000000000000000000000000072
:100E80000000000000000000000000000000000062
:100E9000000000007FF000000000000000000000E3
:100EA000FFE0000000000000000000000000000063
:100EB0000000000000000000000000000000000032
:100EC0000000000000007FF00000000000000000B3
:100ED0000000FFE000000000000000000000000033
:100EE0000000000000000000000000000000000002
:100EF00000000000000000007FF000000000000083
:100F000000000000FFE00000000000000000000002
:100F100000000000000000000000000000000000D1
:100F2000000000000000000000003FF00000000092
:100F300000000000000000000000000000000000B1
:100F400000000000000000000000000000000000A1
:100F50000000000000000000000000003FF0000062
:100F60000000000000000000000000000000000081
:100F70000000000000000000000000000000000071
:100F800000000000000000000000000000003FF032
:100F90000000000000000000000000000000000051
:100FA0000000000000000000000000000000000041
:100FB0000000000000000000000000000000000031
:100FC0003FF00000000000000000000000000000F2
:100FD0000000000000000000000000000000000011
:100FE0000000000000000000000000000000000001
:100FF00000003FF0000000000000000000000000C2
:1010000000000000000000000000000000000000E0
:1010100000000000000000000000000000000000D0
:10102000000000003FF80000000000000000000089
:1010300000000000000000000000000000000000B0
:1010400000000000000000000000000000000000A0
:101050000000000000003FF8000000000000000059
:101060000000000000000000000000000000000080
:101070000000000000000000000000000000000070
:1010800000000000000000003FF800000000000029
:101090000000000000000000000000000000000050
:1010A0000000000000000000000000000000000040
:1010B000000000000000000000003FF800000000F9
:1010C0000000000000000000000000000000000020
:1010D0000000000000000000000000000000000010
:1010E0000000000000000000000000003FF80000C9
:1010F00000000000000000000000000000000000F0
:1011000000000000000000000000000000000000DF
:1011100000000000000000000000000000001FF8B8
:1011200000000000000000000000000000000000BF
:1011300000000000000000000000000000000000AF
:10114000000000000000000000000000000000009F
:101150001FF8000000000000000000000000000078
:10116000000000000000000000000000000000007F
:10117000000000000000000000000000000000006F
:1011800000001FF800000000000000000000000048
:10119000000000000000000000000000000000004F
:1011A000000000000000000000000000000000003F
:1011B000000000001FFC0000000000000000000014
:1011C0000000000000003E0000000F800000000052
:1011D000000000000000000000000000000000000F
:1011E0000000000000001FFC0000000000000000E4
:1011F000000000000000000FFFFC0007FFFF0000E0
:101200000000000FFFC000000000000FFFE0000022
:1012100000000000000000001FFC000000000000B3
:1012200000000000FFE00000007FFFFF001FFFFF45
:10123000C0000000007FFFF800000000007FFFFCFE
:10124000000000000000000000000FFC0000000093
:10125000000000000000FFE0000001FFFFFFC07F72
:10126000FFFFF800000003FFFFFF0000000003FF86
:10127000FFFF800000000000000000000FFE0000E3
:101280000000000000000000FFE0000003FFFFFF7F
:10129000F0FFFFFFFC0000000FFFFFFFC000000099
:1012A00007FFFFFFC00000000000000000000FFE6D
:1012B00000000000000000000000FFE000000FFF41
:1012C000FFFFFBFFFFFFFE0000001FFFFFFFE0002E
:1012D00000001FFFFFFFF000000000000000000002
:1012E0000FFE00000000000000000000FFE0000012
:1012F0001FFFFFFFFFFFFFFFFF0000003FFFFFFF9B
:10130000F80000003FFFFFFFFC00000000000000AD
:10131000000007FE00000000000000000000FFE0E9
:1013200000001FFFFFFFFFFFFFFFFF800000FFFF28
:10133000FFFFFC0000007FFFFFFFFE000000000039
:101340000000000007FF0000000000000000000097
:10135000FFE000003FFFFFFFFFFFFFFFFFC00001B6
:10136000FFFFFFFFFE000000FFFFFFFFFF00000088
:1013700000000000000007FF000000000000000067
:101380000000FFE000007FFFFFFFFFFFFFFFFFC047
:101390000003FFFFFFFFFF000001FFFFFFFFFF80D3
:1013A000000000000000000003FF0000000000003B
:1013B00000000000FFE000007FFF807FFFFFE03FB4
:1013C000FFE00007FFFFFFFFFF800003FFFFFFFFBD
:1013D000FF80000000000000000003FF800000000C
:1013E000000000000000FFE00000FFFE003FFFFFE4
:1013F0008007FFE00007FFFE03FFFF800007FFFEFE
:1014000000FFFFC0000000000000000003FF80009C
:101410000000000000000000FFE00000FFF8000FE7
:10142000FFFE0003FFE0000FFFF0003FFFC0000FD2
:10143000FFF0001FFFE0000000000000000003FFBD
:1014400080000000000000000000FFE00000FFF04E
:101450000007FFFC0001FFF0000FFFC0000FFFE0DE
:10146000000FFFC00007FFE00000000000000000C8
:1014700001FFC0000000000000000000FFE00001CC
:10148000FFF00003FFFC0000FFF0001FFF800007DB
:10149000FFE0001FFF800003FFF0000000000000DD
:1014A000000001FFC0000000000000000000FFE09D
:1014B0000001FFE00003FFF80000FFF0001FFF0045
:1014C0000003FFE0001FFF000001FFF0000000002C
:1014D0000000000000FFC00000000000000000004D
:1014E000FFE00001FFC00001FFF000007FF0003FBF
:1014F000FE000001FFF0003FFE000000FFF80000CA
:1015000000000000000000FFE000000000000000FC
:101510000000FFE00001FFC00001FFF000007FF8C5
:10152000003FFC000000FFF0003FFC0000007FF8DF
:10153000000000000000000000FFE00000000000CC
:1015400000000000FFE00003FFC00001FFF000000A
:101550003FF8003FFC0000007FF8007FF80000002B
:101560003FFC0000000000000000007FF0000000D1
:10157000000000000000FFE00003FF800000FFE02B
:1015800000003FF8007FF80000007FF8007FF800BF
:1015900000003FFC0000000000000000007FF000A1
:1015A0000000000000000000FFE00003FF800000DA
:1015B000FFE000003FF8007FF00000007FF8007FB0
:1015C000F00000001FFC0000000000000000007F91
:1015D000F0000000000000000000FFE00003FF80BA
:1015E0000000FFE000003FF800FFF00000003FF8BF
:1015F000007FF0000000100000000000000000006C
:10160000003FF8000000000000000000FFE00003C1
:10161000FF800000FFE000003FF800FFF000000046
:101620003FF800FFE00000000000000000000000A4
:101630000000003FF8000000000000000000FFE094
:101640000003FF800000FFE000003FF800FFE00023
:10165000FFFFFFFC00FFE0000000000000000000B2
:1016600000000000001FFC0000000000000000005F
:10167000FFE00003FF800000FFE000003FF800FFF4
:10168000E000FFFFFFFC00FFE000000000000000A2
:10169000000000000000001FFC000000000000002F
:1016A0000000FFE00003FF800000FFE000003FF8C3
:1016B00000FFE000FFFFFFFC00FFE0000000000073
:1016C0000000000000000000000FFE00000000000D
:1016D00000000000FFE00003FF800000FFE00000CA
:1016E0003FF800FFE000FFFFFFFC00FFC00000002C
:1016F00000000000000000000000000FFE000000DD
:10170000000000000000FFE00003FF800000FFE099
:1017100000003FF800FFE000FFFFFFFC00FFC000FB
:101720000000000000000000000000000007FF00B3
:101730000000000000000000FFE00003FF80000048
:10174000FFE000003FF800FFE000FFFFFFFC00FFAC
:10175000C0000000000000000000000000000007C2
:10176000FF000000000000000000FFE00003FF8019
:101770000000FFE000003FF800FFE000FFFFFFFC7B
:1017800000FFC0000000000000000000000000009A
:101790000003FF800000000000000000FFE00003E5
:1017A000FF800000FFE000003FF800FFE000FFFFC7
:1017B000FFFC00FFC000000000000000000000006F
:1017C00000000003FF800000000000000000FFE0B8
:1017D0000003FF800000FFE000003FF800FFE00092
:1017E0000000000000FFC00000000000000000003A
:1017F000000000000001FFC0000000000000000029
:10180000FFE00003FF800000FFE000003FF800FF62
:10181000E0000000000000FFC00000000000000029
:101820000000000000000001FFC0000000000000F8
:101830000000FFE00003FF800000FFE000003FF831
:1018400000FFE0000000000000FFE00000000000DA
:1018500000000000000000000000FFE000000000A9
:1018600000000000FFE00003FF800000FFE0000038
:101870003FF800FFE0000000000000FFE000000073
:10188000000000000000000000000000FFF0000069
:10189000000000000000FFE00003FF800000FFE008
:1018A00000003FF800FFE0000000000000FFE00043
:1018B00000000000000000000000000000007FF0B9
:1018C0000000000000000000FFE00003FF800000B7
:1018D000FFE000003FF800FFF0000000000000FF04
:1018E000F000000000000000000000000000000008
:1018F0003FF80000000000000000FFE00003FF8050
:101900000000FFE000003FF8007FF0000000000052
:10191000007FF00000000000000000000000000058
:1019200000003FF80000000000000000FFE000039E
:10193000FF800000FFE000003FF8007FF0000000A3
:101940000000007FF8000000000000000000000020
:10195000000000001FFC00000000000000007FF0FD
:101960000003FF800000FFE000003FF8007FF80068
:1019700000000000007FF8000000000000000000F0
:101980000000000000001FFE00000000000000003A
:101990007FF00003FF800000FFE000003FF8007FC1
:1019A000FC0000000000007FFC00000000000000C0
:1019B00000000000000000000FFE0000000000001A
:1019C00000007FF80003FF800000FFE000003FF808
:1019D000003FFC000000FFF0003FFC0000007FF82B
:1019E0000000000000000000000007FF00000000F1
:1019F000000000007FF80003FF800000FFE000000F
:101A00003FF8003FFE000001FFF0003FFE00000035
:101A1000FFF80000000000000000000007FF800049
:101A20000000000000007FFC0003FF800000FFE0DA
:101A300000003FF8001FFF000003FFE0001FFF0051
:101A40000001FFF00000000000000000000003FFA4
:101A500080000000000000003FFE0003FF80000047
:101A6000FFE000003FF8001FFF800007FFE0001FBD
:101A7000FF800003FFF000000000000000000000F5
:101A800001FFC0000000000000003FFFE003FF80F6
:101A90000000FFE000003FF8000FFFE0001FFFE044
:101AA000000FFFE0000FFFE000000000000000005A
:101AB000000001FFE0000000000000001FFFE00345
:101AC000FF800000FFE000003FF8000FFFF0007F04
:101AD000FFC00007FFF0001FFFE000000000000053
:101AE0000000000000FFE0000000000000001FFFF9
:101AF000E003FF800000FFE000003FF80007FFFF69
:101B000007FFFF800007FFFF01FFFFC0000000008C
:101B1000000000000000007FF00000000000000056
:101B20001FFFE003FF800000FFE000003FF800031C
:101B3000FFFFFFFFFF000003FFFFFFFFFF8000002C
:101B40000000000000000000007FF800000000001E
:101B500000000FFFE003FF800000FFE000003FF8FF
:101B60000003FFFFFFFFFF000001FFFFFFFFFF007B
:101B700000000000000000000000003FFC0000002A
:101B80000000000007FFE003FF800000FFE000000E
:101B90003FF80001FFFFFFFFFE000000FFFFFFFF17
:101BA000FF0000000000000000000000001FFC001B
:101BB00000000000000003FFE003FF800000FFE0E2
:101BC00000003FF800007FFFFFFFFC0000007FFFE8
:101BD000FFFFFC000000000000000000000000FF0C
:101BE000FE0000000000000001FFE003FF80000095
:101BF000FFE000003FF800003FFFFFFFF0000000A3
:101C00003FFFFFFFF80000000000000000000000A0
:101C100003FFFF0000000000000000FFE003FF8062
:101C20000000FFE000003FF800001FFFFFFFE000A2
:101C300000001FFFFFFFF000000000000000000098
:101C400000000FF7FF80000000000000003FE003ED
:101C5000FF800000FFE000003FF8000007FFFFFFEB
:101C60008000000007FFFFFFC00000000000000030
:101C7000000000001FE3FF80000000000000000FD4
:101C8000E003FF800000FFE000003FF8000003FFDA
:101C9000FFFF0000000001FFFFFF00000000000048
:101CA0000000000000007F81FFC000000000000075
:101CB0000000000000000000000000000000000024
:101CC000007FFFF800000000003FFFF80000000068
:101CD0000000000000000001FE00FFE00000000026
:101CE00000000000000000000000000000000000F4
:101CF00000000007FF80000000000003FF800000DC
:101D000000000000000000000003FC00FFF00000E5
:101D100000000000000000000000000000000000C3
:101D200000000000000000000000000000000000B3
:101D300000000000000000000000000FF8007FF825
:101D40000000000000000000000000000000000093
:101D50000000000000000000000000000000000083
:101D6000000000000000000000000000001FE00074
:101D70003FFC000000000000000000000000000028
:101D80000000000000000000000000000000000053
:101D90000000000000000000000000000000003F04
:101DA000C0001FFE00000000000000000000000056
:101DB0000000000000000000000000000000000023
:101DC0000000000000000000000000000000000013
:101DD000007F80000FFF00000000000000000000F6
:101DE00000000000000000000000000000000000F3
:101DF00000000000000000000000000000000000E3
:101E0000000000FF000007FF80000000000000004D
:101E100000000000000000000000000000000000C2
:101E200000000000000000000000000000000000B2
:101E30000000000001FE000003FFC00000000000E1
:101E40000000000000000000000000000000000092
:101E50000000000000000000000000000000000082
:101E600000000000000003FC000003FFE000000091
:101E70000000000000000000000000000000000062
:101E80000000000000000000000000000000000052
:101E9000000000000000000007FC000001FFE0005F
:101EA0000000000000000000000000000000000032
:101EB0000000000000000000000000000000000022
:101EC000000000000000000000000FF8000000FF0C
:101ED000F000000000000000000000000000000012
:101EE00000000000000000000000000000000000F2
:101EF0000000000000000000000000001FF00000D3
:101F0000007FF8000000000000000000000000005A
:101F100000000000000000000000000000000000C1
:101F200000000000000000000000000000001FF0A2
:101F30000000003FFC000000000000000000000066
:101F40000000000000000000000000000000000091
:101F50000000000000000000000000000000000081
:101F60003FE00000001FFE00000000000000000035
:101F70000000000000000000000000000000000061
:101F80000000000000000000000000000000000051
:101F900000007FE00000000FFF00000000000000D4
:101FA0000000000000000000000000000000000031
:101FB0000000000000000000000000000000000021
:101FC000000000007FC000000007FF80000000004C
:101FD0000000000000000000000000000000000001
:101FE00000000000000000000000000000000000F1
:101FF000000000000000FFC000000003FFE0000040
:102000000000000000000000000000000080000050
:1020100000000000000000000000000000000000C0
:102020000000000000000000FFC000000001FFF001
:102030000000000000000000000000000000004060
:102040000000000000000000000000000000000090
:1020500000000000000000000000FFC000000000C1
:10206000FFF8000000000000000000000000000079
:102070000010000000000000000000000000000050
:10208000000000000000000000000000FF800000D1
:1020900000007FFC000000000000000000000000C5
:1020A0000000000800000000000000000000000028
:1020B0000000000000000000000000000001FF80A0
:1020C000000000003FFE00000000000000000000D3
:1020D00000000000000400000000000000000000FC
:1020E00000000000000000000000000000000001EF
:1020F000FF80000000000FFF000000000000000053
:1021000000000000000000020000000000000000CD
:1021100000000000000000000000000000000000BF
:102120000001FF800000000007FF800000000000A9
:10213000000000000000000000010000000000009E
:10214000000000000000000000000000000000008F
:1021500000000001FF800000000003FFE00000001D
:1021600000000000000000000000000180000000EE
:10217000000000000000000000000000000000005F
:10218000000000000001FFC00000000001FFF0009F
:102190000000000000000000000000000000C0007F
:1021A000000000000000000000000000000000002F
:1021B0000000000000000001FFC00000000000FF60
:1021C000F800000000000000000000000000000017
:1021D000600000000000000000000000000000009F
:1021E00000000000000000000001FFC0000000002F
:1021F000007FFC0000000000000000000000000064
:10220000000060000000000000000000000000006E
:10221000000000000000000000000000FFC00000FF
:102220000000001FFF000000000000000000000090
:10223000000000003000000000000000000000006E
:102240000000000000000000000000000000FFE0AF
:1022500000000000000FFF800000000000000000F0
:102260000000000000001800000000000000000056
:10227000000000000000000000000000000000005E
:10228000FFE0000000000007FFC0000000000000A9
:102290000000000000000000180000000000000026
:1022A000000000000000000000000000000000002E
:1022B00000007FF0000000000001FFF000000000BF
:1022C000000000000000000000001C0000000000F2
:1022D00000000000000000000000000000000000FE
:1022E000000000007FF0000000000000FFF8000088
:1022F0000000000000000000000000000C000000D2
:1023000000000000000000000000000000000000CD
:102310000000000000007FF80000000000007FFCCB
:1023200000000000000000000000000000000E009F
:10233000000000000000000000000000000000009D
:1023400000000000000000003FFC00000000000052
:102350001FFF00000000000000000000000000005F
:102360000600000000000000000000000000000067
:10237000000000000000000000001FFC0000000042
:1023800000000FFF800000000000000000000000BF
:102390000000060000000000000000000000000037
:1023A0000000000000000000000000001FFE000010
:1023B0000000000007FFE000000000000000000037
:1023C0000000000007000000000000000000000006
:1023D00000000000000000000000000000000FFFEF
:1023E00000000000000001FFF800000000000000F5
:1023F00000000000000003000000000000000000DA
:1024000000000000000000000000000000000000CC
:1024100007FF80000000000000FFFC00000000003B
:1024200000000000000000000300000000000000A9
:10243000000000000000000000000000000000009C
:10244000000003FFC00000000000003FFF0000008C
:1024500000000000000000000000038000000000F9
:10246000000000000000000000000000000000006C
:102470000000000003FFE00000000000001FFFC09C
:1024800000000000000000000000000003800000C9
:10249000000000000000000000000000000000003C
:1024A00000000000000001FFF00000000000000735
:1024B000FFE00000000000000000000000000380BA
:1024C000000000000000000000000000000000000C
:1024D000000000000000000000FFFC000000000001
:1024E0000001FFF8000000000000000000000000F4
:1024F0000380000000000000000000000000000059
:1025000000000000000000000000007FFE0000004E
:1025100000000000FFFE00000000000000000000BE
:10252000000003C0000000000000000000000000E8
:10253000000000000000000000000000001FFF007D
:102540000000000000003FFF8000000000000000CD
:102550000000000043C00000000000000000000078
:102560000000000000000000000000000000000F5C
:10257000FFC00000000000000FFFE00000000000AE
:1025800000000000000083C0000000000000000008
:10259000000000000000000000000000000000003B
:1025A0000007FFE000000000000007FFF800000047
:1025B000000000000000000103C000000000000057
:1025C000000000000000000000000000000000000B
:1025D00000000001FFF800000000000001FFFE0005
:1025E0000000000000000000000203C00000000026
:1025F00000000000000000000000000000000000DB
:10260000000000000000FFFE000000000000007F4E
:10261000FF800000000000000000000401C0000076
:1026200000000000000000000000000000000000AA
:1026300000000000000000003FFF800000000000DC
:10264000001FFFF00000000000000000000803C0B1
:10265000000000000000000000000000000000007A
:10266000000000000000000000001FFFE00000006C
:1026700000000007FFFC0000000000000000003028
:1026800003C0000000000000000000000000000087
:1026900000000000000000000000000007FFF8003C
:1026A000000000000001FFFF00000000000000002B
:1026B000006003C0000000000000000000000000F7
:1026C000000000000000000000000000000001FF0A
:1026D000FE000000000000003FFFC00000000000FE
:1026E0000000018003C000000000000000000000A6
:1026F00000000000000000000000000000000000DA
:10270000007FFFC00000000000000FFFFC00000081
:1027100000000000070003C00000000000000000EF
:1027200000000000000000000000000000000000A9
:102730000000001FFFF000000000000003FFFF800A
:102740000000000000001E0003C0000000000000A8
:102750000000000000000000000000000000000079
:10276000000000000007FFFE000000000000007FE6
:10277000FFF0000000000000F80003C000000000AF
:102780000000000000000000000000000000000049
:102790000000000000000001FFFFC000000000007A
:1027A000001FFFFF000000000003E00003C0000066
:1027B0000000000000000000000000000000000019
:1027C000000000000000000000003FFFF0000000DB
:1027D00000000081FFFFF0000000001F8000078064
:1027E00000000000000000000000000000000000E9
:1027F00000000000000000000000000007FFFF00D4
:102800000000000000807FFFFFC0000003FE00000A
:102810000780000000000000000000000000000031
:10282000000000000000000000000000000001FFA8
:10283000FFF000000000000007FFFFFFC001FEF8EE
:102840000000078000000000000000000000000001
:102850000000000000000000000000000000000078
:10286000001FFFFF000000000000007FFFFFFFFFD0
:10287000FFC0000007800000000000000000000012
:102880000000000000000000000000000000000048
:1028900000000003FFFFF80000000000000FFFFF32
:1028A000FFFFFE0000000F8000000000000000009D
:1028B0000000000000000000000000000000000018
:1028C0000000000000003FFFFF800000010000004A
:1028D0003FFFFFFFE00000000F00000000000000CD
:1028E00000000000000000000000000000000000E8
:1028F000000000000000000007FFFFFF00000100D3
:102900000000003FFFD1000000000F0000000000A9
:1029100000000000000000000000000000000000B7
:1029200000000000000000000000007FFFFFFC002E
:10293000010000000001FFFC000000001F0000007B
:102940000000000000000000000000000000000087
:102950000000000000000000000000000001FFFF78
:10296000FFFF0100000007FFFF00000000001F0044
:102970000000000000000000000000000000000057
:102980000000000000000000000000000000000047
:102990001FFFFFFFFFFFFFFFFFFFE0000000000041
:1029A0001E00000000000000000000000000000009
:1029B0000000000000000000000000000000000017
:1029C0000000003FFFFFFFFFFFFFFFF800000000D7
:1029D00000003E00000000000000000000000000B9
:1029E00000000000000000000000000000000000E7
:1029F0000000000000001FFFFFFFFFFFF8000000C5
:102A0000000000003C00000000000000000000008A
:102A100000000000000000000000000000000000B6
:102A200000000000000000000001FFFFFF80000028
:102A30000000000000007C0000000000000000001A
:102A40000000000000000000000000000000000086
:102A50000000000000000000000000000100000075
:102A600000000000000000007C00000000000000EA
:102A70000000000000000000000000000000000056
:102A80000000000000000000000000000000010045
:102A900000000000000000000000F800000000003E
:102AA0000000000000000000000000000000000026
:102AB0000000000000000000000000000000000016
:102AC000020000000000000000000000F80000000C
:102AD00000000000000000000000000000000000F6
:102AE00000000000000000000000000000000000E6
:102AF0000000010000000000000000000001F000E4
:102B000000000000000000000000000000000000C5
:102B100000000000000000000000000000000000B5
:102B2000000000000300000000000000000000039F
:102B3000F0000000000000000000000000000000A5
:102B40000000000000000000000000000000000085
:102B50000000000000000100000000000000000074
:102B60000003E00000000000000000000000000082
:102B70000000000000000000000000000000000055
:102B80000000000000000000010000000000000044
:102B900000000007E000000000000000000000004E
:102BA0000000000000000000000000000000000025
:102BB0000000000000000000000001000000000014
:102BC000000000000007C00000000000000000003E
:102BD00000000000000000000000000000000000F5
:102BE00000000000000000000000000001000000E4
:102BF000000000000000000FC00000000000000006
:102C000000000000000000000000000000000000C4
:102C10000000000000000000000000000000018033
:102C20000000000000000000001F80000000000005
:102C30000000000000000000000000000000000094
:102C40000000000000000000000000000000000084
:102C500001800000000000000000003F00000000B4
:102C60000000000000000000000000000000000064
:102C70000000000000000000000000000000000054
:102C8000000000800000000000000000007F000045
:102C90000000000000000000000000000000000034
:102CA0000000000000000000000000000000000024
:102CB0000000000000C00000000000000000007ED6
:102CC0000000000000000000000000000000000004
:102CD00000000000000000000000000000000000F4
:102CE00000000000000000C0000000000000000024
:102CF00000FC0000000000000000000000000000D8
:102D000000000000000000000000000000000000C3
:102D1000000000000000000000C0000000000000F3
:102D2000000001FC000000000000000000000000A6
:102D30000000000000000000000000000000000093
:102D40000000000000000000000000600000000023
:102D50000000000003F80000000000000000000078
:102D60000000000000000000000000000000000063
:102D700000000000000000000000000000600000F3
:102D800000000000000007F000000000000000004C
:102D90000000000000000000000000000000000033
:102DA00000000000000000000000000000000070B3
:102DB00000000000000000000FE000000000000024
:102DC0000000000000000000000000000000000003
:102DD00000000000000000000000000000000000F3
:102DE000003000000000000000001FC000000000D4
:102DF00000000000000000000000000000000000D3
:102E000000000000000000000000000000000000C2
:102E10000000003800000000000000003F800000BB
:102E200000000000000000000000000000000000A2
:102E30000000000000000000000000000000000092
:102E400000000000001800000000000000007F00EB
:102E50000000000000000000000000000000000072
:102E60000000000000000000000000000000000062
:102E7000000000000000001C000000000000000036
:102E8000FE00000000000000000000000000000044
:102E90000000000000000000000000000000000032
:102EA0000000000000000000000E00000000000014
:102EB0000001FC0000000000000000000000000015
:102EC0000000000000000000000000000000000002
:102ED00000000000000000000000000F00000000E3
:102EE00000000007F80000000000000000000000E3
:102EF00000000000000000000000000000000000D2
:102F0000000000000000000000000000000780003A
:102F100000000000000FF0000000000000000000B2
:102F200000000000000000000000000000000000A1
:102F3000000000000000000000000000000000038E
:102F4000C00000000000001FE000000000000000C2
:102F50000000000000000000000000000000000071
:102F60000000000000000000000000000000000061
:102F70000001E00000000000007FC0000000000031
:102F80000000000000000000000000000000000041
:102F90000000000000000000000000000000000031
:102FA00000000001F0000000000001FF80000000B0
:102FB0000000000000000000000000000000000011
:102FC0000000000000000000000000000000000001
:102FD000000000000000F8000000000003FE0000F8
:102FE00000000000000000000000000000000000E1
:102FF00000000000000000000000000000000000D1
:1030000000000000000000007E00000000000FFC37
:1030100000000000000000000000000000000000B0
:1030200000000000000000000000000000000000A0
:10303000000000000000000000003F000000000051
:103040003FF0000000000000000000000000000051
:103050000000000000000000000000000000000070
:103060000000000000000000000000001FC0000081
:103070000000FFE000000000000000000000000071
:103080000000000000000000000000000000000040
:10309000000000000000000000000000000007F039
:1030A00000000007FF80000000000000000000009A
:1030B0000000000000000000000000000000000010
:1030C0000000000000000000000000000000000000
:1030D00003FC0000003FFE000000000000000000B4
:1030E00000000000000000000000000000000000E0
:1030F00000000000000000000000000000000000D0
:10310000000000FFC00003FFF80000000000000006
:1031100000000000000000000000000000000000AF
:10312000000000000000000000000000000000009F
:1031300000000000007FFFC3FFFFE0000000000070
:10314000000000000000000000000000000000007F
:10315000000000000000000000000000000000006F
:10316000000000000000001FFFFFFFFF0000000044
:10317000000000000000000000000000000000004F
:10318000000000000000000000000000000000003F
:1031900000000000000000000003FFFFFFFC000033
:1031A000000000000000000000000000000000001F
:1031B000000000000000000000000000000000000F
:1031C000000000000000000000000000FFFFFFC042
:1031D00000000000000000000000000000000000EF
:1031E00000000000000000000000000000000000DF
:1031F000000000000000000000000000000007FFC9
:10320000F8000000000000000000000000000000C6
:1032100000000000000000000000000000000000AE
:10322000000000000000000000000000000000009E
:10323000000000000000000000000000000000008E
:10324000000000000000000000000000000000007E
:10325000000000000000000000000000000000006E
:10326000000000000000000000000000000000005E
:10327000000000000000000000000000000000004E
:10328000000000000000000000000000000000003E
:10329000000000000000000000000000000000002E
:1032A000000000000000000000000000000000001E
:1032B00000006E616E00696E660000407A10F35A7D
:1032C00000A0724E18090010A5D4E80000E8764866
:1032D000170000E40B54020000CA9A3B000000E112
:1032E000F505000080969800000040420F000000A5
:1032F000A08601000000102700000000E803000085
:1033000000006400000000000A000000000001004E
:10331000000000002C76D888DC674F0823DFC1DF6F
:10332000AE59E1B1B796E5E3E453C63AE651997672
:1033300096E8E6C28426EB898C9B62ED407C6FFCAC
:10334000EFBC9C9F40F2BAA56FA5F490055A2AF7EE
:103350005C936B6CF9676DC11BFCE0E40D47FEF5F7
:1033600020E6B500D0ED902E03009435770500805F
:10337000841E080000204E0A000000C80C333333BE
:10338000330F986E12831141EF8D2114893BE6555E
:1033900016CFFEE6DB18D1844B381BF77C1D901D41
:1033A000A4BBE424203284725E228100C9F124ECA3
:1033B000A1E53D2711241FBECFEFCDBFDFE9DEBF62
:1033C00000E00CBF12E6A0E0B0E2E2ECF1E800E0C1
:1033D0000BBF02C007900D92AE32B107D9F722E9B8
:1033E000AEE2B2E601C01D92A035B207E1F70E943D
:1033F00095350C94DF400C940000992787FD90953B
:10340000A92FB92FFC01B097EF35F10508F03EC2A6
:10341000E250FF4F0C943C3D82E0FB0180838FEE35
:1034200091E5089582E0FB01808389E991E50895A3
:1034300083E0FB01808388E191E5089584E0FB014E
:1034400080838CE690E5089583E0FB0180838BEE1A
:103450009FE4089586E0FB01808389EE9EE4089551
:1034600084E0FB0180838DE39EE4089582E0FB010C
:10347000808387EE9DE4089582E0FB01808381E9EB
:103480009DE4089582E0FB0180838BE39DE4089531
:1034900083E0FB0180838AEB9CE4089584E0FB01D8
:1034A00080838EE09CE4089582E0FB01808388EBBA
:1034B0009BE4089582E0FB01808382E69BE408950B
:1034C00082E0FB0180838CE09BE4089583E0FB01B4
:1034D00080838BE89AE4089583E0FB0180838AE08F
:1034E0009AE4089583E0FB01808389E899E40895D4
:1034F00083E0FB01808388E099E4089583E0FB0189
:10350000808387E898E4089583E0FB01808386E068
:1035100098E4089583E0FB01808385E897E40895AB
:1035200083E0FB01808384E097E4089583E0FB015E
:10353000808383E896E4089583E0FB01808382E042
:1035400096E4089583E0FB01808381E895E4089583
:1035500082E0FB0180838BE295E4089582E0FB0129
:10356000808385ED94E4089584E0FB01808389E203
:1035700094E4089584E0FB0180838DE793E408954B
:1035800084E0FB01808381ED92E4089583E0FB01F8
:10359000808380E592E4089585E0FB01808389E7DC
:1035A00091E4089584E0FB0180838DEC90E408951C
:1035B00084E0FB01808381E290E4089583E0FB01D5
:1035C000808380EA9FE3089584E0FB01808384EF99
:1035D0009EE3089583E0FB01808383E79EE30895E3
:1035E00083E0FB01808382EF9DE3089584E0FB018B
:1035F000808386E49DE3089584E0FB0180838AE96B
:103600009CE3089583E0FB01808389E19CE30895B6
:1036100083E0FB01808388E99BE3089584E0FB015C
:1036200080838CEE9AE3089583E0FB0180838BE630
:103630009AE3089584E0FB0180838FEB99E308957A
:1036400084E0FB01808383E199E3089584E0FB013A
:10365000808387E698E3089583E0FB01808386EE0C
:1036600097E3089584E0FB0180838AE397E308955C
:1036700084E0FB0180838EE896E3089583E0FB01FC
:1036800080838DE096E3089583E0FB0180838CE8DE
:1036900095E3089584E0FB01808380EE94E3089530
:1036A00083E0FB0180838FE594E3089585E0FB01CF
:1036B000808388E893E3089584E0FB0180838CEDA8
:1036C00092E3089584E0FB01808380E392E3089510
:1036D00083E0FB0180838FEA91E3089582E0FB01A0
:1036E000808389E591E3089583E0FB01808388ED81
:1036F00090E3089582E0FB01808382E890E30895DF
:1037000084E0FB01808386ED9FE2089583E0FB0166
:10371000808385E59FE2089583E0FB01808384ED4B
:103720009EE2089583E0FB01808383E59EE2089595
:1037300083E0FB01808382ED9DE2089583E0FB013D
:10374000808381E59DE2089583E0FB01808380ED25
:103750009CE2089583E0FB0180838FE49CE208955E
:1037600082E0FB01808389EF9BE2089583E0FB0107
:10377000808388E79BE2089583E0FB01808387EFE5
:103780009AE2089582E0FB01808381EA9AE208953B
:1037900082E0FB0180838BE49AE2089583E0FB01E1
:1037A00080838AEC99E2089582E0FB01808384E7BC
:1037B00099E2089585E0FB0180838DE998E2089500
:1037C00083E0FB0180838CE198E2089583E0FB01B4
:1037D00080838BE997E2089583E0FB0180838AE18F
:1037E00097E2089583E0FB01808389E996E20895DA
:1037F00082E0FB01808383E496E2089583E0FB018D
:10380000808382EC95E2089582E0FB0180838CE660
:1038100095E2089583E0FB0180838BEE94E20895A6
:1038200083E0FB0180838AE694E2089584E0FB0153
:1038300080838EEB93E2089583E0FB0180838DE328
:1038400093E2089583E0FB0180838CEB92E208957C
:1038500083E0FB0180838BE392E2089583E0FB0128
:1038600080838AEB91E2089583E0FB01808389E302
:1038700091E2089583E0FB01808388EB90E2089554
:1038800084E0FB0180838CE090E2089582E0FB01FC
:10389000808385E492E508950F931F93CF93DF9380
:1038A000182F092F61E070E080E490E00E94653DF0
:1038B000D82FC92F0F931F932BE932E53F932F93F6
:1038C0009F938F930E942D400F900F900F900F9019
:1038D0000F900F908D2F9C2FDF91CF911F910F9103
:1038E0000895EF92FF920F931F93CF93DF93162FBC
:1038F000072FF82EE92E61E070E080E490E00E944E
:10390000653DD82FC92FEF92FF920F931F932EE999
:1039100032E53F932F939F938F930E942D408DB755
:103920009EB708968DBF9EBF8D2F9C2FDF91CF91A4
:103930001F910F91FF90EF9008950895CF93DF931B
:103940006BE772E680E092E00AD241E852E661E07D
:1039500080E092E040D2CBE7D2E68881ECE7F2E665
:1039600090819F789083817E8061888310927D62B0
:1039700085E080937E626DE97CE180E092E02AD16F
:10398000E3E8F2E680818C7F8160808388818066B5
:103990008883BE0180E092E0A3D141E852E661E075
:1039A00080E092E0FCD143E050E061E080EA96E004
:1039B0000E94162C43E050E062E080EA96E00E940C
:1039C000162CDF91CF9108954F925F926F927F9264
:1039D000AF92BF92CF92DF92EF92FF920F931F931D
:1039E000CF93DF93C82F6A017B0141E852E661E083
:1039F00080E092E0F0D1C03148F010928162C05175
:103A0000CC0FCC0FCC0FC093826208C081E08093B2
:103A10008162CC0FCC0FCC0FC093826241E852E69A
:103A200061E080E092E0BBD180E092E0FDD0E8E48C
:103A3000F0E08081817F80838081816080838FB787
:103A4000F894E0E0F2E09081946090838FBF8895D5
:103A5000E8E4F0E080818E7F808320E030E0A901FF
:103A6000C701B6010E94A13818160CF03FC0412CC6
:103A7000512C320100E010E0C8E4D0E0A12C6894A1
:103A8000BB24B1F88881817F8883888181608883A5
:103A90008FB7F894F5019081946090838FBF8895DB
:103AA00088818E7F8883F50164A175A1882777FDC1
:103AB0008095982F0E94F137A70196010E945B37ED
:103AC0009B01AC01C301B2010E94F3362B013C0102
:103AD0000F5F1F4FB80180E090E00E94EF37A70111
:103AE00096010E94573788236CF203C0412C512C59
:103AF000320180E092E0AFD0C301B201DF91CF91FB
:103B00001F910F91FF90EF90DF90CF90BF90AF90FB
:103B10007F906F905F904F90089540E050E060E09C
:103B200072E48EE051CF089540E050E060E071E42F
:103B30008CE04ACF089540E050E060E072E48DE010
:103B400043CF0895EADF20E030EE4FEF54E40C94C9
:103B50005B370895E9DF20E030EE4FEF54E40C943A
:103B60005B370895E8DF20E030EE4FEF54E40C942B
:103B70005B370895E7DF20E030E04BEF53E40E942D
:103B8000F03820E030E048EC52E40C945B370895C4
:103B9000E1DF20E030E045E154E40E94F03820E02D
:103BA00030E040EA51E40C945B370895DBDF20E01D
:103BB00030E048EC52E40E94F03822E538EB4EE960
:103BC0005FE30E945B372DEC3CEC4CE45FE30C942C
:103BD0005B3708952FB7F8948115924021F46093D4
:103BE0008562709386622FBF08958115924061F4BB
:103BF00080912E6291E0980F90932E62811104C003
:103C000062E081E00C94EF2B08958115924059F405
:103C100080912E62815080932E62811104C062E0F7
:103C200081E00C94FB2B08951F93CF93DF93EC015D
:103C30001FB7F894DADF8881816088831FBF8FB750
:103C4000F894E8E8F2E690819F5F90838FBFDF9160
:103C5000CF911F910895CF93CFB7F894FC012081A5
:103C60002E7F2083D2DFCFBF8FB7F894E8E8F2E64B
:103C70009081915090838FBFCF9108951F920F92A2
:103C80000FB60F9211240BB60F922F933F934F93C1
:103C90005F936F937F938F939F93AF93BF93EF93B4
:103CA000FF93E0E0F2E044A155A1E0918562F0913C
:103CB000866261E080E092E01995FF91EF91BF91FB
:103CC000AF919F918F917F916F915F914F913F91B4
:103CD0002F910F900BBE0F900FBE0F901F90189555
:103CE000DF92EF92FF920F931F93CF93DF93EC013C
:103CF0008B01C11582E0D80751F561E270E082E0E6
:103D00000E94062CE82EF12C60E270E082E00E9416
:103D1000062CFE2CEE24E82ADFB6F894CE0165DFEF
:103D20002881217082E08883EC86FD86F8018481F9
:103D30009581888F998F81818A8383818C83828109
:103D40008B83808189832883CE015FDFDFBEDF9193
:103D5000CF911F910F91FF90EF90DF900895FF9208
:103D60000F931F93CF93DF93EC018B01FFB6F89471
:103D70003CDF888D998DF801848395838A818183C6
:103D80008C8183838B81828389818083CE013DDF17
:103D9000FFBEDF91CF911F910F91FF900895FF9289
:103DA0000F931F93CF93DF93EC018A01FFB6F89432
:103DB0001CDFF801808188A382818AA3818189A385
:103DC00083818EA3CE0121DFFFBEDF91CF911F91B2
:103DD0000F91FF900895FF920F931F93CF93DF935E
:103DE000EC018A01FFB6F89400DF88A1F801808316
:103DF0008AA1828389A181838EA18383CE0105DF7D
:103E0000FFBEDF91CF911F910F91FF9008959927E9
:103E100087FD9095A92FB92FFC01B097EF35F105DB
:103E200008F03EC2E35AFE4F0C943C3D81E0FB019A
:103E3000808386E29CE5089581E0FB01808385E133
:103E40009CE5089581E0FB01808384E09CE5089572
:103E500082E0FB01808382EE9BE5089582E0FB0116
:103E6000808380EC9BE5089582E0FB0180838EE9EE
:103E70009BE5089582E0FB0180838CE79BE5089534
:103E800081E0FB0180838BE69BE5089581E0FB01E7
:103E900080838AE59BE5089581E0FB01808389E4C6
:103EA0009BE5089581E0FB01808388E39BE508950D
:103EB00081E0FB01808387E29BE5089581E0FB01BF
:103EC000808386E19BE5089581E0FB01808385E0A6
:103ED0009BE5089581E0FB01808384EF9AE50895D6
:103EE00081E0FB01808383EE9AE5089582E0FB0187
:103EF000808381EC9AE5089582E0FB0180838FE95D
:103F00009AE5089582E0FB0180838DE79AE50895A4
:103F100082E0FB0180838BE59AE5089582E0FB0156
:103F2000808389E39AE5089582E0FB01808387E13D
:103F30009AE5089582E0FB01808385EF99E5089575
:103F400082E0FB01808383ED99E5089582E0FB0127
:103F5000808381EB99E5089582E0FB0180838FE8FF
:103F600099E5089581E0FB0180838EE799E5089546
:103F700081E0FB0180838DE699E5089581E0FB01F6
:103F800080838CE599E5089581E0FB0180838BE4D3
:103F900099E5089581E0FB0180838AE399E508951E
:103FA00081E0FB01808389E299E5089582E0FB01CD
:103FB000808387E099E5089582E0FB01808385EEA8
:103FC00098E5089582E0FB01808383EC98E50895ED
:103FD00082E0FB01808381EA98E5089582E0FB019D
:103FE00080838FE798E5089582E0FB0180838DE56B
:103FF00098E5089581E0FB0180838CE498E50895BD
:1040000082E0FB0180838AE298E5089582E0FB016B
:10401000808388E098E5089581E0FB01808387EF45
:1040200097E5089581E0FB01808386EE97E508958A
:1040300082E0FB01808384EC97E5089581E0FB0139
:10404000808383EB97E5089582E0FB01808381E91B
:1040500097E5089582E0FB0180838FE697E5089558
:1040600082E0FB0180838DE497E5089582E0FB0107
:1040700080838BE297E5089582E0FB01808389E0ED
:1040800097E5089582E0FB01808387EE96E5089529
:1040900082E0FB01808385EC96E5089581E0FB01D9
:1040A000808384EB96E5089582E0FB01808382E9BA
:1040B00096E5089582E0FB01808380E796E5089508
:1040C00082E0FB0180838EE496E5089582E0FB01A7
:1040D00080838CE296E5089582E0FB0180838AE08C
:1040E00096E5089582E0FB01808388EE95E50895CA
:1040F00081E0FB01808387ED95E5089581E0FB0178
:10410000808386EC95E5089581E0FB01808385EB53
:1041100095E5089581E0FB01808384EA95E50895A3
:1041200081E0FB01808383E995E5089581E0FB014F
:10413000808382E895E5089582E0FB01808380E634
:1041400095E5089582E0FB0180838EE395E508956F
:1041500081E0FB0180838DE295E5089582E0FB011B
:1041600080838BE095E5089581E0FB0180838AEFF1
:1041700094E5089581E0FB01808389EE94E508953C
:1041800082E0FB01808387EC94E5089582E0FB01E7
:10419000808385EA94E5089581E0FB01808384E9CA
:1041A00094E5089581E0FB01808383E894E5089518
:1041B00082E0FB01808381E694E5089581E0FB01C4
:1041C000808380E594E5089582E0FB0180838EE2A0
:1041D00094E5089582E0FB0180838CE094E50895E6
:1041E00082E0FB0180838AEE93E5089582E0FB0183
:1041F000808388EC93E5089582E0FB01808386EA62
:1042000093E5089581E0FB01808385E993E50895B6
:1042100081E0FB01808384E893E5089581E0FB0160
:10422000808383E793E5089582E0FB01808381E545
:1042300093E5089581E0FB01808380E493E5089590
:1042400082E0FB0180838EE193E5089581E0FB012C
:1042500080838DE093E5089581E0FB0180838CEFFE
:1042600092E5089581E0FB0180838BEE92E508954D
:1042700081E0FB0180838AED92E5089581E0FB01F6
:10428000808389EC92E5089581E0FB01808388EBCF
:1042900092E5089581E0FB01808387EA92E5089525
:1042A00082E0FB01808387E39CE508952F923F9293
:1042B0004F925F926F927F928F929F92AF92BF9236
:1042C000CF92DF92EF92FF920F931F93CF93DF93E2
:1042D000CDB7DEB7C859D140CDBFDEBF0E94BC2EDE
:1042E00089E190E089839A8389E790E0C753DF4FA3
:1042F00088839983C95CD0402AE130E02B833C83DA
:10430000C553DF4F88839983CB5CD0402BE130E0ED
:104310002D833E83C353DF4F88839983CD5CD04088
:104320002CE130E02F833887C153DF4F8883998396
:10433000CF5CD04084E090E08093796290937A6281
:10434000CF56DE4F18821982C159D140C12CD12CD1
:10435000BB24B394212C6894332432F89E012F5F40
:104360003F4F49013E0139EC630E711CCB56DE4FC5
:104370008882C559D140CA56DE4F9882C659D1406D
:10438000C956DE4F6882C759D140C856DE4F788281
:10439000C859D1400F2EF0EA4F2EF6E05F2EF02DD7
:1043A000E980FA80C7010E94F23EBB2009F495C063
:1043B00082E08093E507032D10E0000F111F080D28
:1043C000191DC32CD12C6894BB24B1F8A32CCD5655
:1043D000DE4F88829982C359D140922C16010E94E7
:1043E000EF3E6EE170E00E94073D6C01CC0CDD1CDD
:1043F000CC0CDD1CCC0CDD1C4FEFC41AD40A0E947F
:10440000EF3E62E370E00E94073D019610927962F0
:1044100010927A62121413048CF5CB56DE4FE881A9
:10442000C559D140CA56DE4FF881C659D140C95648
:10443000DE4FA881C759D140C856DE4FB881C85950
:10444000D14040E0219131912817390731F42D9165
:104450003C9111972C153D0519F0442321F001C022
:1044600041E0B092E6071296E017F10759F7209263
:10447000796230927A624111B2CF16C03A2C292C5F
:10448000CF56DE4FC882D982C159D1406C01CD567A
:10449000DE4F88809980C359D140682FCF56DE4FB8
:1044A0008881C159D14015C03A2C292CCF56DE4FF6
:1044B000C882D982C159D1406C01CD56DE4F888067
:1044C0009980C359D140682FCF56DE4F8881C1599A
:1044D000D14040E00E946B31B12C10927962109271
:1044E0007A62032D10E010161106E4F480E090E0EB
:1044F000880F991FF401E80FF91FD301A80FB91F06
:1045000021E040816C9181E00E947C308091796251
:1045100090917A6201968093796290937A62801783
:10452000910734F3D3010D90BC91A02DCD56DE4FF1
:10453000A883B983C359D1401092796210927A62EC
:10454000A801415051091416150604F5F401D301D0
:10455000632D70E09B01220F331F8FEF9FEF8C0FB5
:104560009D1F280F391F8281938181939193129609
:104570008D919C9113978D939D93E217F30799F773
:10458000615071096093796270937A62FA01EE0F5B
:10459000FF1FE60DF71D80819181CF56DE4FA88168
:1045A000B981C159D1408A179B0709F05FC0FA0150
:1045B000EE0FFF1FE80DF91D808191818C159D057F
:1045C00009F054C03394832D90E001978093796271
:1045D00090937A6218161906E4F5232D30E0BC0199
:1045E000660F771FF401E60FF71F220F331FC40178
:1045F000820F931F660D771DA9015E01B3E0AB0E1C
:10460000B11C3195219531093297D901AE0FBF1FE9
:10461000A40FB51F0D911C910297DC01A20FB31FCF
:10462000A40FB51F0D931C9362507109DB01A20FFB
:10463000B31FA40FB51F0D911C91119712960D93E6
:104640001C9313978A159B05F9F6109279621092C4
:104650007A62E982FA82CD56DE4F28813981C359C8
:10466000D140F30120833183BB24B39431E023167E
:1046700009F485C0231648F042E0241609F4F5C079
:1046800053E0251609F466C1DFC1032D10E0015087
:104690001109F801EE0FFF1FE80DF91D208131818E
:1046A0002F5F3F4FC90163E370E00E94073D892BF4
:1046B00041F0F801EE0FFF1FE80DF91D2083318353
:1046C00009C0F801EE0FFF1FE80DF91D81E090E031
:1046D000808391831092796210927A62101611068B
:1046E0000CF0B4C1F801EE0FFF1FE80DF91D208199
:1046F0003181CB56DE4FE881C559D140CA56DE4FD5
:10470000F881C659D140832D90E0880F991F6FEF33
:104710007FEF6C0F7D1F860F971FF12C000F111F6D
:10472000060D171DCD56DE4F68827982C359D140E0
:10473000419151912417350781F4D8016D917C91F5
:10474000CD56DE4FA881B981C359D1404D915C91BE
:104750006417750711F4FF24F394CD56DE4F48819A
:104760005981C359D1404E5F5F4FCD56DE4F4883CC
:104770005983C359D140E817F907D1F66EC1432DCB
:1047800050E041505109FA01EE0FFF1FE60DF71DF1
:104790008081918108971816190644F4FA01EE0FEA
:1047A000FF1FE60DF71D8083918309C0FA01EE0F0C
:1047B000FF1FE60DF71D89EE90E080839183109234
:1047C000796210927A62141615060CF041C1FA0152
:1047D000EE0FFF1FE80DF91D20813181CB56DE4F12
:1047E000E881C559D140CA56DE4FF881C659D1403B
:1047F000832D90E0880F991F6FEF7FEF6C0F7D1F67
:10480000860F971FF12C8A01000F111F060D171D2F
:10481000CD56DE4F68827982C359D1404191519182
:104820002417350781F4D8016D917C91CD56DE4F68
:10483000A881B981C359D1404D915C916417750726
:1048400011F4FF24F394CD56DE4F48815981C359AA
:10485000D1404E5F5F4FCD56DE4F48835983C359D9
:10486000D140E817F907D1F6F8C0432D50E0415088
:104870005109FA01EE0FFF1FE80DF91D80819181AA
:104880000197009741F0FA01EE0FFF1FE80DF91DA7
:104890008083918309C0FA01EE0FFF1FE80DF91D17
:1048A00062E370E0608371831092796210927A62A1
:1048B000141615060CF0CEC0FA01EE0FFF1FE80D1E
:1048C000F91D20813181CB56DE4FE881C559D14099
:1048D000CA56DE4FF881C659D140832D90E0880F2B
:1048E000991F6FEF7FEF6C0F7D1F860F971FF12CC5
:1048F0008A01000F111F060D171DCD56DE4F68826D
:104900007982C359D140419151912417350781F4DF
:10491000D8016D917C91CD56DE4FA881B981C359E4
:10492000D1404D915C916417750711F4FF24F39405
:10493000CD56DE4F48815981C359D1404E5F5F4FFC
:10494000CD56DE4F48835983C359D140E817F90744
:10495000D1F683C0032D10E001501109F801EE0FCC
:10496000FF1FE60DF71D20813181285F3F4FC901F0
:1049700061EF70E00E94073D892B41F0F801EE0FD6
:10498000FF1FE60DF71D2083318309C0F801EE0FEC
:10499000FF1FE60DF71D81E090E080839183109268
:1049A000796210927A62101611060CF055C0F80167
:1049B000EE0FFF1FE80DF91D20813181CB56DE4F30
:1049C000E881C559D140CA56DE4FF881C659D14059
:1049D000832D90E0880F991F6FEF7FEF6C0F7D1F85
:1049E000860F971FF12C000F111F060D171DCD56B6
:1049F000DE4F68827982C359D14041915191241789
:104A0000350781F4D8016D917C91CD56DE4FA88198
:104A1000B981C359D1404D915C916417750711F468
:104A2000FF24F394CD56DE4F48815981C359D140BC
:104A30004E5F5F4FCD56DE4F48835983C359D140F7
:104A4000E817F907D1F609C0F12C07C0F12C05C011
:104A5000F12C03C0F12C01C0F12C1092796210925C
:104A60007A62032D10E010161106DCF4E0E0F0E0AD
:104A7000EE0FFF1FD401AE0FBF1FE60DF71D20E0A4
:104A80004C91608181E00E947C30E0917962F091EC
:104A90007A623196E0937962F0937A62E017F107D7
:104AA0003CF30E948B2FFF2001F100E023E144E161
:104AB00061E189E59CE50E94E52F0E948B2F85E14D
:104AC00096E1A5E0B0E00197A109B1090097A10521
:104AD000B105C9F70E94BC2E60E080E490E0A0D64A
:104AE00061E081E490E09CD652C081E090E0809348
:104AF000796290937A6230910A20D20118962C91B3
:104B0000189722FF04C018962C9124FD03C033236C
:104B100091F101C031E0F201208524FD13C08093A2
:104B2000796290937A6230930A202394822D837065
:104B300009F4212C80E090E001968D38F0E29F0787
:104B4000D9F72ECC208522FD16C0809379629093F0
:104B50007A6230930A202A94B3E0B21520F40F2E23
:104B6000F3E02F2EF02D80E090E001968D38E0E20A
:104B70009E07D9F715CC0196181619060CF4BDCF6F
:104B80008093796290937A6230930A2009CCC85658
:104B9000DE4FCDBFDEBFDF91CF911F910F91FF9010
:104BA000EF90DF90CF90BF90AF909F908F907F90CD
:104BB0006F905F904F903F902F900895982F990F8E
:104BC0009A7A86958575982B892F880F880F8C7C0B
:104BD000969596959373892B82950895CF93DF933D
:104BE000EC01C03C28E0D20721F468E083E0F7D56F
:104BF00006C0803C994019F468E084E0F0D58881D3
:104C000080618883DF91CF910895FF920F931F9366
:104C1000CF93DF93EC01F42EB901A80100E412E474
:104C20002FE030E04CD088234CF088819F2D990FE5
:104C3000990F9C70837FF92EF82AF882DF91CF912B
:104C40001F910F91FF900895FC01DB01460F571F44
:104C500005C08D91838382818823ECF7A417B50763
:104C6000C1F780E00895FB018081E82FE695E69585
:104C7000E69540E2E49FF0011124FA5F877021E09D
:104C800030E0A90102C0440F551F8A95E2F7468320
:104C90000895FB018081E82FE695E695E69540E2D0
:104CA000E49FF0011124FA5F877021E030E0A90150
:104CB00002C0440F551F8A95E2F745830895CF92AD
:104CC000DF92EF92FF920F931F93CF93DF93EC014C
:104CD0006A017B01DB01CA010197A109B109BC018D
:104CE000CD01600F711F821F931FA70196010E94C3
:104CF0001A3D2138310541055105F8F4213460F49D
:104D0000213260F4213160F4293060F4253060F400
:104D1000233060F090E00BC093E009C092E007C040
:104D200092E805C091E003C091E801C090E8888155
:104D30008C77892B888381E001C08FEFDF91CF9141
:104D40001F910F91FF90EF90DF90CF9008951F92E9
:104D50000F920FB60F9211240BB60F922F933F9321
:104D60004F935F936F937F938F939F93AF93BF9373
:104D7000EF93FF93E0916562F0916662309709F0DE
:104D80001995FF91EF91BF91AF919F918F917F9175
:104D90006F915F914F913F912F910F900BBE0F90AC
:104DA0000FBE0F901F9018951F920F920FB60F9283
:104DB00011240BB60F922F933F934F935F936F93F2
:104DC0007F938F939F93AF93BF93EF93FF93E09164
:104DD0006362F0916462309709F01995FF91EF9149
:104DE000BF91AF919F918F917F916F915F914F9103
:104DF0003F912F910F900BBE0F900FBE0F901F9001
:104E000018951F920F920FB60F9211240BB60F92A6
:104E10002F933F934F935F936F937F938F939F93C2
:104E2000AF93BF93EF93FF93E0916162F091626261
:104E3000309709F01995FF91EF91BF91AF919F9134
:104E40008F917F916F915F914F913F912F910F9033
:104E50000BBE0F900FBE0F901F9018951F920F92D0
:104E60000FB60F9211240BB60F922F933F934F93CF
:104E70005F936F937F938F939F93AF93BF93EF93C2
:104E8000FF93E0915F62F0916062309709F01995AD
:104E9000FF91EF91BF91AF919F918F917F916F9112
:104EA0005F914F913F912F910F900BBE0F900FBECE
:104EB0000F901F9018951F920F920FB60F9211240A
:104EC0000BB60F922F933F934F935F936F937F9304
:104ED0008F939F93AF93BF93EF93FF93E0915D62A6
:104EE000F0915E62309709F01995FF91EF91BF91B3
:104EF000AF919F918F917F916F915F914F913F9172
:104F00002F910F900BBE0F900FBE0F901F90189512
:104F10001F920F920FB60F9211240BB60F922F9380
:104F20003F934F935F936F937F938F939F93AF9331
:104F3000BF93EF93FF93E0915B62F0915C623097D7
:104F400009F01995FF91EF91BF91AF919F918F91CA
:104F50007F916F915F914F913F912F910F900BBE79
:104F60000F900FBE0F901F9018951F920F920FB6C3
:104F70000F9211240BB60F922F933F934F935F9391
:104F80006F937F938F939F93AF93BF93EF93FF9311
:104F9000E0915962F0915A62309709F01995FF91AA
:104FA000EF91BF91AF919F918F917F916F915F91A1
:104FB0004F913F912F910F900BBE0F900FBE0F900E
:104FC0001F9018951F920F920FB60F9211240BB6D7
:104FD0000F922F933F934F935F936F937F938F9392
:104FE0009F93AF93BF93EF93FF93E0915762F0913C
:104FF0005862309709F01995FF91EF91BF91AF91E9
:105000009F918F917F916F915F914F913F912F91E0
:105010000F900BBE0F900FBE0F901F9018951F9210
:105020000F920FB60F9211240BB60F922F933F934E
:105030004F935F936F937F938F939F93AF93BF93A0
:10504000EF93FF93E0915562F0915662309709F02B
:105050001995FF91EF91BF91AF919F918F917F91A2
:105060006F915F914F913F912F910F900BBE0F90D9
:105070000FBE0F901F9018951F920F920FB60F92B0
:1050800011240BB60F922F933F934F935F936F931F
:105090007F938F939F93AF93BF93EF93FF93E09191
:1050A0005362F0915462309709F01995FF91EF9196
:1050B000BF91AF919F918F917F916F915F914F9130
:1050C0003F912F910F900BBE0F900FBE0F901F902E
:1050D00018951F920F920FB60F9211240BB60F92D4
:1050E0002F933F934F935F936F937F938F939F93F0
:1050F000AF93BF93EF93FF93E0915162F0915262AF
:10510000309709F01995FF91EF91BF91AF919F9161
:105110008F917F916F915F914F913F912F910F9060
:105120000BBE0F900FBE0F901F9018951F920F92FD
:105130000FB60F9211240BB60F922F933F934F93FC
:105140005F936F937F938F939F93AF93BF93EF93EF
:10515000FF93E0914F62F0915062309709F01995FA
:10516000FF91EF91BF91AF919F918F917F916F913F
:105170005F914F913F912F910F900BBE0F900FBEFB
:105180000F901F9018951F920F920FB60F92112437
:105190000BB60F922F933F934F935F936F937F9331
:1051A0008F939F93AF93BF93EF93FF93E0914D62E3
:1051B000F0914E62309709F01995FF91EF91BF91F0
:1051C000AF919F918F917F916F915F914F913F919F
:1051D0002F910F900BBE0F900FBE0F901F90189540
:1051E0001F920F920FB60F9211240BB60F922F93AE
:1051F0003F934F935F936F937F938F939F93AF935F
:10520000BF93EF93FF93E0914B62F0914C62309724
:1052100009F01995FF91EF91BF91AF919F918F91F7
:105220007F916F915F914F913F912F910F900BBEA6
:105230000F900FBE0F901F9018951F920F920FB6F0
:105240000F9211240BB60F922F933F934F935F93BE
:105250006F937F938F939F93AF93BF93EF93FF933E
:10526000E0914962F0914A62309709F01995FF91F7
:10527000EF91BF91AF919F918F917F916F915F91CE
:105280004F913F912F910F900BBE0F900FBE0F903B
:105290001F9018951F920F920FB60F9211240BB604
:1052A0000F922F933F934F935F936F937F938F93BF
:1052B0009F93AF93BF93EF93FF93E0914762F09179
:1052C0004862309709F01995FF91EF91BF91AF9126
:1052D0009F918F917F916F915F914F913F912F910E
:1052E0000F900BBE0F900FBE0F901F9018951F923E
:1052F0000F920FB60F9211240BB60F922F933F937C
:105300004F935F936F937F938F939F93AF93BF93CD
:10531000EF93FF93E0914562F0914662309709F078
:105320001995FF91EF91BF91AF919F918F917F91CF
:105330006F915F914F913F912F910F900BBE0F9006
:105340000FBE0F901F9018951F920F920FB60F92DD
:1053500011240BB60F922F933F934F935F936F934C
:105360007F938F939F93AF93BF93EF93FF93E091BE
:105370004362F0914462309709F01995FF91EF91E3
:10538000BF91AF919F918F917F916F915F914F915D
:105390003F912F910F900BBE0F900FBE0F901F905B
:1053A00018951F920F920FB60F9211240BB60F9201
:1053B0002F933F934F935F936F937F938F939F931D
:1053C000AF93BF93EF93FF93E0914162F0914262FC
:1053D000309709F01995FF91EF91BF91AF919F918F
:1053E0008F917F916F915F914F913F912F910F908E
:1053F0000BBE0F900FBE0F901F9018951F920F922B
:105400000FB60F9211240BB60F922F933F934F9329
:105410005F936F937F938F939F93AF93BF93EF931C
:10542000FF93E0913F62F0914062309709F0199547
:10543000FF91EF91BF91AF919F918F917F916F916C
:105440005F914F913F912F910F900BBE0F900FBE28
:105450000F901F9018951F920F920FB60F92112464
:105460000BB60F922F933F934F935F936F937F935E
:105470008F939F93AF93BF93EF93FF93E0913D6220
:10548000F0913E62309709F01995FF91EF91BF912D
:10549000AF919F918F917F916F915F914F913F91CC
:1054A0002F910F900BBE0F900FBE0F901F9018956D
:1054B0001F920F920FB60F9211240BB60F922F93DB
:1054C0003F934F935F936F937F938F939F93AF938C
:1054D000BF93EF93FF93E0913B62F0913C62309772
:1054E00009F01995FF91EF91BF91AF919F918F9125
:1054F0007F916F915F914F913F912F910F900BBED4
:105500000F900FBE0F901F9018951F920F920FB61D
:105510000F9211240BB60F922F933F934F935F93EB
:105520006F937F938F939F93AF93BF93EF93FF936B
:10553000E0913962F0913A62309709F01995FF9144
:10554000EF91BF91AF919F918F917F916F915F91FB
:105550004F913F912F910F900BBE0F900FBE0F9068
:105560001F9018951F920F920FB60F9211240BB631
:105570000F922F933F934F935F936F937F938F93EC
:105580009F93AF93BF93EF93FF93E0913762F091B6
:105590003862309709F01995FF91EF91BF91AF9163
:1055A0009F918F917F916F915F914F913F912F913B
:1055B0000F900BBE0F900FBE0F901F9018951F926B
:1055C0000F920FB60F9211240BB60F922F933F93A9
:1055D0004F935F936F937F938F939F93AF93BF93FB
:1055E000EF93FF93E0913562F0913662309709F0C6
:1055F0001995FF91EF91BF91AF919F918F917F91FD
:105600006F915F914F913F912F910F900BBE0F9033
:105610000FBE0F901F9018951F920F920FB60F920A
:1056200011240BB60F922F933F934F935F936F9379
:105630007F938F939F93AF93BF93EF93FF93E091EB
:105640003362F0913462309709F01995FF91EF9130
:10565000BF91AF919F918F917F916F915F914F918A
:105660003F912F910F900BBE0F900FBE0F901F9088
:1056700018951F920F920FB60F9211240BB60F922E
:105680002F933F934F935F936F937F938F939F934A
:10569000AF93BF93EF93FF93E0913162F091326249
:1056A000309709F01995FF91EF91BF91AF919F91BC
:1056B0008F917F916F915F914F913F912F910F90BB
:1056C0000BBE0F900FBE0F901F9018951F920F9258
:1056D0000FB60F9211240BB60F922F933F934F9357
:1056E0005F936F937F938F939F93AF93BF93EF934A
:1056F000FF93E0912F62F0913062309709F0199595
:10570000FF91EF91BF91AF919F918F917F916F9199
:105710005F914F913F912F910F900BBE0F900FBE55
:105720000F901F901895CF93CFB7F894282F392F4B
:10573000211588E0380739F461E083E050D064E057
:1057400083E04DD02DC0203488E0380739F462E082
:1057500083E045D064E083E042D022C0211589E097
:10576000380739F461E084E03AD064E084E037D06F
:1057700017C021158AE0380739F461E085E02FD0A1
:1057800064E085E02CD00CC021153B4039F461E089
:1057900086E025D064E086E022D002C0CFBF09C0F9
:1057A0008FB7F894E8E8F2E690819F5F90838FBF0F
:1057B000CFBFCF9108958FEF8093700080937100D9
:1057C00080937200809373008093740080937500BF
:1057D0008093760061E081E490E022C008959FB755
:1057E000F894E82FF0E0E059FF4F6095808168233E
:1057F00060839FBF08959FB7F894E82FF0E0E059C9
:10580000FF4F8081682B60839FBF08954091CA013C
:10581000E62FF72F8093CA0184914093CA0108951F
:105820001BBEFC0128ED24BF60830895CF93DF9356
:10583000FC01709620E030E0C62FD0E0DE01022EA1
:1058400002C0B595A7950A94E2F7A0FD50832F5F9B
:105850003F4F31962830310589F740FF0AC041FF9C
:1058600003C0FC01658302C0FC016683FC01618307
:1058700002C0FC016283DF91CF91089543E050E0C4
:1058800061E080EE97E0D2DF43E050E062E080EE3E
:1058900097E0CCDF43E050E060E180E696E0C6DFD1
:1058A00041E050E460E280E696E0C0DF40E05BE18A
:1058B00062E080EA96E0BADF40E05BE164E080EA23
:1058C00096E0B4DF43E050E068E080EA96E0AEDFC7
:1058D00043E050E061E080E696E0A8DF43E050E07E
:1058E00068E080E096E0A2DF43E050E060E280E81C
:1058F00096E09CDF40E05BE160E180E896E096DFC7
:1059000043E050E062E080E696E090DF43E050E064
:1059100068E080E696E08ADF40E050E064E080E600
:1059200096E084DF40E050E061E080E096E07EDFDA
:1059300040E050E062E080E096E078DF40E050E058
:1059400064E080E096E072DF41E050E061E080EAF0
:1059500096E06CDF43E050E068E080E496E066DFCC
:1059600040E050E064E080E496E060DF43E050E037
:1059700068E080E696E05ADF40E050E064E080E6D0
:1059800096E054DF43E050E068E080E896E04EDFC8
:1059900040E050E064E080E896E048CF0895CF9280
:1059A000DF92EF92FF92CF93DF93EC016B01E12C3A
:1059B000F12C60E472E48FE090E0A70196010E9470
:1059C0001A3DCA01B9012FEF3FEF40E050E00E94BD
:1059D0001A3D2115310529F481E08C8321E030E066
:1059E0002DC02230310528F482E08C8322E030E0A3
:1059F00025C02430310528F483E08C8324E030E096
:105A00001DC02830310528F484E08C8328E030E084
:105A100015C02034310528F485E08C8320E430E083
:105A20000DC02F3F310509F028F486E08C8320E07B
:105A300031E004C087E08C8320E034E040E050E0B7
:105A400060E472E48FE090E00E941A3DCA01B9015F
:105A5000A70196010E941A3D2D833E83243631050D
:105A600018F41C821D821E82DF91CF91FF90EF906F
:105A7000DF90CF9008950F931F93CF93DF93EC01A6
:105A800089016230B9F128F4662351F06130E9F000
:105A90006FC0643009F443C0663009F455C068C073
:105AA00080E098E088839983E0E4F6E0508121E08B
:105AB00030E08FEF840FB90102C0660F771F8A951F
:105AC000E2F7CB01852B808353C080E498E0888384
:105AD0009983E0E4F6E0508121E030E083E0840F38
