:100000000C94AD190C94CE190C94CE190C94CE19F5
:100010000C94CE190C94CE190C94CE190C94CE19C4
:100020000C94CE190C94CE190C94CE190C94CE19B4
:100030000C94CE190C94CE190C94CF240C94FC245F
:100040000C9429250C9456250C9483250C94B025EA
:100050000C94DD250C940A260C9437260C94642607
:100060000C94CE190C94CE190C94CE190C94CE1974
:100070000C94CE190C94CE190C94CE190C94CE1964
:100080000C94CE190C94CE190C94CE190C94CE1954
:100090000C94CE190C94CE190C94CE190C94CE1944
:1000A0000C94CE190C94CE190C94CE190C94CE1934
:1000B0000C94CE190C94CE190C94CE190C949F2745
:1000C0000C94CC270C94F9270C9426280C945328D4
:1000D0000C9480280C94CE190C94CE190C94CE1943
:1000E0000C94CE190C94CE190C94CE190C94CE19F4
:1000F0000C94CE190C94CE190C94CE190C94CE19E4
:100100000C94CE190C94CE190C94CE190C94CE19D3
:100110000C94CE190C94CE190C94CE190C94721C1C
:100120000C94CE190C94CE190C94CE190C94CE19B3
:100130000C94CE190C9491260C94BE260C94EB26AC
:100140000C9418270C9445270C9472270C94CE1904
:100150000C94CE190C94CE190C94CE190C94CE1983
:100160000C94CE190C94CE190C94CE190C94CE1973
:100170000C94CE190C94CE190C94CE190C94CE1963
:100180000C94CE190C94CE190C94CE190C94CE1953
:100190000C94CE190C94CE190C94CE190C94CE1943
:1001A0000C94AB2F0C94CE190C94CE190C94CE1940
:1001B0000C94AD280C94DA280C9407290C9434295B
:1001C0000C9461290C948E290C94CE190C94CE19A0
:1001D0000C94CE190C94CE190C94CE190C94CE1903
:1001E0000C94CE190C94CE190C94CE190C94CE19F3
:1001F0000C94CE190C94CE190C94CE19DF19E51974
:10020000EB19F119F719FD19031A091A0F1A151A22
:100210001B1A211A271A2D1A331A391A3F1A451A8E
:100220004B1A511A571A5D1A631A691A6F1A751AFE
:100230007B1A811A871A8D1A931A991A9F1AA51A6E
:10024000AB1AB11AB71ABD1AC31AC91ACF1AD51ADE
:10025000DB1AE11AE71AED1AF31AF91AFF1A051B4D
:100260000B1B111B171B1D1B231B291B2F1B351BB6
:100270003B1B411B471B4D1B531B591B5F1B651B26
:100280006B1B711B771B7D1B831B891B8F1B951B96
:100290009B1BA11BA71BAD1BB31BB91BBF1BC51B06
:1002A000CB1BD11BD71BDD1BE31BE91BEF1BF51B76
:1002B000FB1B011C071C0D1C131C4A1D501D561D49
:1002C0005C1D621D681D6E1D741D7A1D801D861DBE
:1002D0008C1D921D981D9E1DA41DAA1DB01DB61D2E
:1002E000BC1DC21DC81DCE1DD41DDA1DE01DE61D9E
:1002F000EC1DF21DF81DFE1D041E0A1E101E161E0A
:100300001C1E221E281E2E1E341E3A1E401E461E75
:100310004C1E521E581E5E1E641E6A1E701E761EE5
:100320007C1E821E881E8E1E941E9A1EA01EA61E55
:10033000AC1EB21EB81EBE1EC41ECA1ED01ED61EC5
:10034000DC1EE21EE81EEE1EF41EFA1E001F061F33
:100350000C1F121F181F1E1F241F2A1F301F361F9D
:100360003C1F421F481F4E1F541F5A1F601F661F0D
:100370006C1F721F781F7E1F00000000000000002D
:10038000000000000000000000000000000000006D
:10039000000000000000000000000000000000005D
:1003A000000000000000000000000000000000004D
:1003B000000000000000000000000000000000003D
:1003C000000000000000000000000000000000002D
:1003D000000000000000000000000000000000001D
:1003E000000000000000000000000000000000000D
:1003F00000000000000000000000000000000000FD
:1004000000000000000000000000000000000000EC
:1004100000000000000000007FFFFC000000000062
:1004200000000000000000000000000000000000CC
:1004300000000000000000000000000000000000BC
:100440000000000000000000003FFFFFFFFC000074
:10045000000000000000000000000000000000009C
:10046000000000000000000000000000000000008C
:100470000000000000000000000003FFFFFFFFFF7E
:10048000C0000000000000000000000000000000AC
:10049000000000000000000000000000000000005C
:1004A0000000000000000000000000000FFFFFF04F
:1004B00000FFFC0000000000000000000000000041
:1004C000000000000000000000000000000000002C
:1004D0000000000000000000000000000000FFFF1E
:1004E000F8000000FFC00000000000000000000055
:1004F00000000000000000000000000000000000FC
:1005000000000000000000000000000000000001EA
:10051000FFFF8000000003F8000000000000000062
:1005200000000000000000000000000000000000CB
:1005300000000000000000000000000000000000BB
:10054000000FFFF800000000003F00000000000066
:10055000000000000000000000000000000000009B
:10056000000000000000000000000000000000008B
:100570000000003FFFC0000000000003E00000009A
:10058000000000000000000000000000000000006B
:10059000000000000000000000000000000000005B
:1005A00000000000007FFF000000000000003C0091
:1005B000000000000000000000000000000000003B
:1005C000000000000000000000000000000000002B
:1005D00000000000000001FFFC000000000000001F
:1005E0000F000000000000000000000000000000FC
:1005F00000000000000000000000000000000000FB
:10060000000000000000000003FFF00000000000F8
:10061000000001E0000000000000000000000000F9
:1006200000000000000000000000000000000000CA
:10063000000000000000000000000FFFC0000000EC
:100640000000000000380000000000000000000072
:10065000000000000000000000000000000000009A
:100660000000000000000000000000001FFF8000EC
:10067000000000000000000E00000000000000006C
:10068000000000000000000000000000000000006A
:1006900000000000000000000000000000003FFE1D
:1006A00000000000000000000001800000000000C9
:1006B000000000000000000000000000000000003A
:1006C000000000000000000000000000000000002A
:1006D0007FFC00000000000000000000700000002F
:1006E000000000000000000000000000000000000A
:1006F00000000000000000000000000000000000FA
:100700000000FFF0000000000000000000001800E2
:1007100000000000000000000000000000000000D9
:1007200000000000000000000000000000000000C9
:1007300000000001FFE000000000000000000000D9
:1007400006000000000000000000000000000000A3
:100750000000000000000000000000000000000099
:10076000000000000003FFC00000000000000000C7
:1007700000000180000000000000000000000000F8
:100780000000000000000000000000000000000069
:100790000000000000000007FF80000000000000D3
:1007A00000000000006000000000000000000000E9
:1007B0000000000000000000000000000000000039
:1007C0000000000000000000000FFF00000000001B
:1007D0000000000000000018000000000000000001
:1007E0000000000000000000000000000000000009
:1007F00000000000000000000000001FFE000000DC
:1008000000000000000000000004000000000000E4
:1008100000000000000000000000000000000000D8
:10082000000000000000000000000000001FFE00AB
:1008300000000000000000000000000100000000B7
:1008400000000000000000000000000000000000A8
:100850000000000000000000000000000000003F59
:10086000FC0000000000000000000000000040004C
:100870000000000000000000000000000000000078
:100880000000000000000000000000000000000068
:10089000007FF800000000000000000000000000E1
:1008A0002000000000000000000000000000000028
:1008B0000000000000000000000000000000000038
:1008C0000000007FF00000000000000000000000B9
:1008D0000000080000000000000000000000000010
:1008E0000000000000000000000000000000000008
:1008F0000000000000FFF000000000000000000009
:1009000000000000040000000000000000000000E3
:1009100000000000000000000000000000000000D7
:1009200000000000000000FFE000000000000000E8
:1009300000000000000001000000000000000000B6
:1009400000000000000000000000000000000000A7
:10095000000000000000000001FFC00000000000D7
:100960000000000000000000000000000000000087
:100970000000000000000000000000000000000077
:100980000000000000000000000001FFC0000000A7
:100990000000000000000000000000000000000057
:1009A0000000000000000000000000000000000047
:1009B00000000000000000000000000003FF8000B5
:1009C0000000000000000000000000000000000027
:1009D0000000000000000000000000000000000017
:1009E000000000000000000000000000000003FF05
:1009F0008000000000000000000000000000000077
:100A000000000000000000000000000000000000E6
:100A100000000000000000000000000000000000D6
:100A200003FF0000000000000000000000000000C4
:100A300000000000000000000000000000000000B6
:100A400000000000000000000000000000000000A6
:100A5000000007FF00000000000000000000000090
:100A60000000000000000000000000000000000086
:100A70000000000000000000000000000000000076
:100A80000000000007FF0000000000000000000060
:100A90000000000000000000000000000000000056
:100AA0000000000000000000000000000000000046
:100AB0000000000000000FFE000000000000000029
:100AC0000000000000000000000000000000000026
:100AD0000000000000000000000000000000000016
:100AE00000000000000000000FFE000000000000F9
:100AF00000000000000000000000000000000000F6
:100B000000000000000000000000000000000000E5
:100B1000000000000000000000000FFE00000000C8
:100B200000000000000000000000000000000000C5
:100B300000000000000000000000000000000000B5
:100B40000000000000000000000000001FFC00008A
:100B50000000000000000000000000000000000095
:100B60000000000000000000000000000000000085
:100B700000000000000000000000000000001FFC5A
:100B80000000000000000000000000000000000065
:100B90000000000000000000000000000000000055
:100BA0000000000000000000000000000000000045
:100BB0001FFC00000000000000000000000000001A
:100BC0000000000000000000000000000000000025
:100BD0000000000000000000000000000000000015
:100BE00000001FF8000000000000000000000000EE
:100BF00000000000000000000000000000000000F5
:100C000000000000000000000000000000000000E4
:100C1000000000001FF800000000000000000000BD
:100C200000000000000000000000000000000000C4
:100C300000000000000000000000000000000000B4
:100C40000000000000003FF800000000000000006D
:100C50000000000000000000000000000000000094
:100C60000000000000000000000000000000000084
:100C700000000000000000003FF80000000000003D
:100C80000000000000000000000000000000000064
:100C90000000000000000000000000000000000054
:100CA000000000000000000000003FF8000000000D
:100CB0000000000000000000000000000000000034
:100CC0000000000000000000000000000000000024
:100CD0000000000000000000000000003FF80000DD
:100CE0000000000000000000FFE000000000000025
:100CF00000000000000000000000000000000000F4
:100D000000000000000000000000000000003FF8AC
:100D100000000000000000000000FFE000000000F4
:100D200000000000000000000000000000000000C3
:100D300000000000000000000000000000000000B3
:100D40003FF000000000000000000000FFE0000095
:100D50000000000000000000000000000000000093
:100D60000000000000000000000000000000000083
:100D700000003FF000000000000000000000FFE065
:100D80000000000000000000000000000000000063
:100D90000000000000000000000000000000000053
:100DA000000000003FF00000000000000000000014
:100DB000FFE0000000000000000000000000000054
:100DC0000000000000000000000000000000000023
:100DD0000000000000003FF00000000000000000E4
:100DE0000000FFE000000000000000000000000024
:100DF00000000000000000000000000000000000F3
:100E000000000000000000003FF0000000000000B3
:100E100000000000FFE000000000000000000000F3
:100E200000000000000000000000000000000000C2
:100E3000000000000000000000007FF00000000043
:100E4000000000000000FFE00000000000000000C3
:100E50000000000000000000000000000000000092
:100E60000000000000000000000000007FF0000013
:100E70000000000000000000FFE000000000000093
:100E80000000000000000000000000000000000062
:100E900000000000000000000000000000007FF0E3
:100EA00000000000000000000000FFE00000000063
:100EB0000000000000000000000000000000000032
:100EC0000000000000000000000000000000000022
:100ED0003FF00000000000000000000000000000E3
:100EE0000000000000000000000000000000000002
:100EF00000000000000000000000000000000000F2
:100F000000003FF0000000000000000000000000B2
:100F100000000000000000000000000000000000D1
:100F200000000000000000000000000000000000C1
:100F3000000000003FF00000000000000000000082
:100F400000000000000000000000000000000000A1
:100F50000000000000000000000000000000000091
:100F60000000000000003FF0000000000000000052
:100F70000000000000000000000000000000000071
:100F80000000000000000000000000000000000061
:100F900000000000000000003FF000000000000022
:100FA0000000000000000000000000000000000041
:100FB0000000000000000000000000000000000031
:100FC000000000000000000000003FF800000000EA
:100FD0000000000000000000000000000000000011
:100FE0000000000000000000000000000000000001
:100FF0000000000000000000000000003FF80000BA
:1010000000000000000000000000000000000000E0
:1010100000000000000000000000000000000000D0
:1010200000000000000000000000000000003FF889
:1010300000000000000000000000000000000000B0
:1010400000000000000000000000000000000000A0
:101050000000000000000000000000000000000090
:101060003FF8000000000000000000000000000049
:101070000000000000000000000000000000000070
:101080000000000000000000000000000000000060
:1010900000003FF800000000000000000000000019
:1010A0000000000000000000000000000000000040
:1010B0000000000000000000000000000000000030
:1010C000000000001FF80000000000000000000009
:1010D0000000000000000000000000000000000010
:1010E0000000000000000000000000000000000000
:1010F0000000000000001FF80000000000000000D9
:1011000000000000000000000000000000000000DF
:1011100000000000000000000000000000000000CF
:1011200000000000000000001FF8000000000000A8
:1011300000000000000000000000000000000000AF
:10114000000000000000000000000000000000009F
:10115000000000000000000000001FFC0000000074
:101160000000000000000000000000003E00000041
:101170000F800000000000000000000000000000E0
:101180000000000000000000000000001FFC000044
:10119000000000000000000000000000000FFFFC45
:1011A0000007FFFF00000000000FFFC0000000006C
:1011B000000FFFE0000000000000000000001FFC26
:1011C00000000000000000000000FFE00000007FC1
:1011D000FFFF001FFFFFC0000000007FFFF80000BE
:1011E0000000007FFFFC0000000000000000000085
:1011F0000FFC00000000000000000000FFE0000005
:1012000001FFFFFFC07FFFFFF800000003FFFFFFAB
:101210000000000003FFFFFF80000000000000004E
:1012200000000FFE00000000000000000000FFE0D2
:10123000000003FFFFFFF0FFFFFFFC0000000FFFB7
:10124000FFFFC000000007FFFFFFC000000000001C
:10125000000000000FFE0000000000000000000081
:10126000FFE000000FFFFFFFFBFFFFFFFE0000009D
:101270001FFFFFFFE00000001FFFFFFFF000000066
:101280000000000000000FFE000000000000000051
:101290000000FFE000001FFFFFFFFFFFFFFFFF0058
:1012A00000003FFFFFFFF80000003FFFFFFFFC00D2
:1012B000000000000000000007FE00000000000029
:1012C00000000000FFE000001FFFFFFFFFFFFFFF27
:1012D000FF800000FFFFFFFFFC0000007FFFFFFF1B
:1012E000FE00000000000000000007FF00000000FA
:1012F000000000000000FFE000003FFFFFFFFFFFD5
:10130000FFFFFFC00001FFFFFFFFFE000000FFFF27
:10131000FFFFFF00000000000000000007FF0000CA
:101320000000000000000000FFE000007FFFFFFF62
:10133000FFFFFFFFFFC00003FFFFFFFFFF000001F3
:10134000FFFFFFFFFF80000000000000000003FF20
:1013500000000000000000000000FFE000007FFF30
:10136000807FFFFFE03FFFE00007FFFFFFFFFF8000
:101370000003FFFFFFFFFF800000000000000000EF
:1013800003FF80000000000000000000FFE00000FC
:10139000FFFE003FFFFF8007FFE00007FFFE03FFA7
:1013A000FF800007FFFE00FFFFC0000000000000FC
:1013B000000003FF80000000000000000000FFE0CC
:1013C0000000FFF8000FFFFE0003FFE0000FFFF03A
:1013D000003FFFC0000FFFF0001FFFE00000000013
:1013E0000000000003FF800000000000000000007B
:1013F000FFE00000FFF00007FFFC0001FFF0000F1E
:10140000FFC0000FFFE0000FFFC00007FFE000007B
:1014100000000000000001FFC0000000000000000C
:101420000000FFE00001FFF00003FFFC0000FFF000
:10143000001FFF800007FFE0001FFF800003FFF098
:10144000000000000000000001FFC00000000000DC
:1014500000000000FFE00001FFE00003FFF80000D3
:10146000FFF0001FFF000003FFE0001FFF0000016E
:10147000FFF0000000000000000000FFC0000000BE
:10148000000000000000FFE00001FFC00001FFF0CD
:1014900000007FF0003FFE000001FFF0003FFE0073
:1014A0000000FFF8000000000000000000FFE00066
:1014B0000000000000000000FFE00001FFC000018C
:1014C000FFF000007FF8003FFC000000FFF0003F4D
:1014D000FC0000007FF8000000000000000000FF9A
:1014E000E0000000000000000000FFE00003FFC07B
:1014F0000001FFF000003FF8003FFC0000007FF813
:10150000007FF80000003FFC000000000000000029
:10151000007FF0000000000000000000FFE000037A
:10152000FF800000FFE000003FF8007FF8000000AF
:101530007FF8007FF80000003FFC00000000000082
:101540000000007FF0000000000000000000FFE04D
:101550000003FF800000FFE000003FF8007FF00084
:1015600000007FF8007FF00000001FFC000000007A
:1015700000000000007FF0000000000000000000FC
:10158000FFE00003FF800000FFE000003FF800FFE5
:10159000F00000003FF8007FF000000010000000A5
:1015A000000000000000003FF80000000000000004
:1015B0000000FFE00003FF800000FFE000003FF8B4
:1015C00000FFF00000003FF800FFE0000000000016
:1015D0000000000000000000003FF80000000000D4
:1015E00000000000FFE00003FF800000FFE00000BB
:1015F0003FF800FFE000FFFFFFFC00FFE0000000FD
:1016000000000000000000000000001FFC000000BF
:10161000000000000000FFE00003FF800000FFE08A
:1016200000003FF800FFE000FFFFFFFC00FFE000CC
:10163000000000000000000000000000001FFC008F
:101640000000000000000000FFE00003FF80000039
:10165000FFE000003FF800FFE000FFFFFFFC00FF9D
:10166000E000000000000000000000000000000F8B
:10167000FE000000000000000000FFE00003FF800B
:101680000000FFE000003FF800FFE000FFFFFFFC6C
:1016900000FFC0000000000000000000000000008B
:1016A000000FFE000000000000000000FFE000034B
:1016B000FF800000FFE000003FF800FFE000FFFFB8
:1016C000FFFC00FFC0000000000000000000000060
:1016D00000000007FF000000000000000000FFE025
:1016E0000003FF800000FFE000003FF800FFE00083
:1016F000FFFFFFFC00FFC000000000000000000032
:10170000000000000007FF000000000000000000D3
:10171000FFE00003FF800000FFE000003FF800FF53
:10172000E000FFFFFFFC00FFC00000000000000021
:101730000000000000000003FF8000000000000027
:101740000000FFE00003FF800000FFE000003FF822
:1017500000FFE000FFFFFFFC00FFC00000000000F2
:1017600000000000000000000003FF8000000000F7
:1017700000000000FFE00003FF800000FFE0000029
:101780003FF800FFE0000000000000FFC000000084
:10179000000000000000000000000001FFC0000089
:1017A000000000000000FFE00003FF800000FFE0F9
:1017B00000003FF800FFE0000000000000FFC00054
:1017C0000000000000000000000000000001FFC059
:1017D0000000000000000000FFE00003FF800000A8
:1017E000FFE000003FF800FFE0000000000000FF05
:1017F000E000000000000000000000000000000009
:10180000FFE00000000000000000FFE00003FF8098
:101810000000FFE000003FF800FFE00000000000D3
:1018200000FFE000000000000000000000000000D9
:101830000000FFF00000000000000000FFE00003D7
:10184000FF800000FFE000003FF800FFE000000024
:10185000000000FFE00000000000000000000000A9
:10186000000000007FF00000000000000000FFE02A
:101870000003FF800000FFE000003FF800FFF000E1
:101880000000000000FFF000000000000000000069
:101890000000000000003FF8000000000000000011
:1018A000FFE00003FF800000FFE000003FF8007F42
:1018B000F00000000000007FF000000000000000C9
:1018C00000000000000000003FF8000000000000E1
:1018D0000000FFE00003FF800000FFE000003FF891
:1018E000007FF00000000000007FF8000000000012
:1018F000000000000000000000001FFC00000000CD
:10190000000000007FF00003FF800000FFE0000007
:101910003FF8007FF80000000000007FF8000000A2
:101920000000000000000000000000001FFE00009A
:101930000000000000007FF00003FF800000FFE0D7
:1019400000003FF8007FFC0000000000007FFC006A
:1019500000000000000000000000000000000FFE7A
:1019600000000000000000007FF80003FF8000007E
:10197000FFE000003FF8003FFC000000FFF0003FE8
:10198000FC0000007FF800000000000000000000E4
:1019900007FF00000000000000007FF80003FF8048
:1019A0000000FFE000003FF8003FFE000001FFF0F4
:1019B000003FFE000000FFF80000000000000000F3
:1019C000000007FF80000000000000007FFC000313
:1019D000FF800000FFE000003FF8001FFF00000351
:1019E000FFE0001FFF000001FFF00000000000000A
:1019F0000000000003FF80000000000000003FFE28
:101A00000003FF800000FFE000003FF8001FFF80A0
:101A10000007FFE0001FFF800003FFF00000000050
:101A200000000000000001FFC000000000000000F6
:101A30003FFFE003FF800000FFE000003FF8000FE1
:101A4000FFE0001FFFE0000FFFE0000FFFE00000DD
:101A5000000000000000000001FFE00000000000A6
:101A600000001FFFE003FF800000FFE000003FF8E0
:101A7000000FFFF0007FFFC00007FFF0001FFFE036
:101A80000000000000000000000000FFE000000077
:101A9000000000001FFFE003FF800000FFE00000E7
:101AA0003FF80007FFFF07FFFF800007FFFF01FF70
:101AB000FFC000000000000000000000007FF000F8
:101AC0000000000000001FFFE003FF800000FFE0B7
:101AD00000003FF80003FFFFFFFFFF000003FFFFD0
:101AE000FFFFFF8000000000000000000000007FFA
:101AF000F8000000000000000FFFE003FF8000007E
:101B0000FFE000003FF80003FFFFFFFFFF000001C0
:101B1000FFFFFFFFFF0000000000000000000000CA
:101B2000003FFC0000000000000007FFE003FF8012
:101B30000000FFE000003FF80001FFFFFFFFFE0094
:101B40000000FFFFFFFFFF0000000000000000009A
:101B50000000001FFC0000000000000003FFE00385
:101B6000FF800000FFE000003FF800007FFFFFFF64
:101B7000FC0000007FFFFFFFFC00000000000000F1
:101B80000000000000FFFE0000000000000001FF58
:101B9000E003FF800000FFE000003FF800003FFF8F
:101BA000FFFFF00000003FFFFFFFF8000000000013
:101BB00000000000000003FFFF0000000000000024
:101BC00000FFE003FF800000FFE000003FF800009E
:101BD0001FFFFFFFE00000001FFFFFFFF0000000FD
:101BE00000000000000000000FF7FF800000000070
:101BF0000000003FE003FF800000FFE000003FF82E
:101C0000000007FFFFFF8000000007FFFFFFC0008C
:101C1000000000000000000000001FE3FF80000043
:101C200000000000000FE003FF800000FFE0000064
:101C30003FF8000003FFFFFF0000000001FFFFFF6F
:101C40000000000000000000000000007F81FFC0D5
:101C50000000000000000000000000000000000084
:101C6000000000000000007FFFF800000000003FBF
:101C7000FFF8000000000000000000000001FE006E
:101C8000FFE0000000000000000000000000000075
:101C900000000000000000000007FF8000000000BE
:101CA0000003FF80000000000000000000000003AF
:101CB000FC00FFF000000000000000000000000039
:101CC0000000000000000000000000000000000014
:101CD0000000000000000000000000000000000004
:101CE000000FF8007FF80000000000000000000076
:101CF00000000000000000000000000000000000E4
:101D000000000000000000000000000000000000D3
:101D10000000001FE0003FFC000000000000000089
:101D200000000000000000000000000000000000B3
:101D300000000000000000000000000000000000A3
:101D400000000000003FC0001FFE00000000000077
:101D50000000000000000000000000000000000083
:101D60000000000000000000000000000000000073
:101D7000000000000000007F80000FFF0000000056
:101D80000000000000000000000000000000000053
:101D90000000000000000000000000000000000043
:101DA000000000000000000000FF000007FF8000AE
:101DB0000000000000000000000000000000000023
:101DC0000000000000000000000000000000000013
:101DD0000000000000000000000001FE000003FF02
:101DE000C000000000000000000000000000000033
:101DF00000000000000000000000000000000000E3
:101E000000000000000000000000000003FC0000D3
:101E100003FFE000000000000000000000000000E0
:101E200000000000000000000000000000000000B2
:101E3000000000000000000000000000000007FC9F
:101E4000000001FFE00000000000000000000000B2
:101E50000000000000000000000000000000000082
:101E60000000000000000000000000000000000072
:101E70000FF8000000FFF00000000000000000006C
:101E80000000000000000000000000000000000052
:101E90000000000000000000000000000000000042
:101EA00000001FF00000007FF800000000000000AC
:101EB0000000000000000000000000000000000022
:101EC0000000000000000000000000000000000012
:101ED000000000001FF00000003FFC0000000000B8
:101EE00000000000000000000000000000000000F2
:101EF00000000000000000000000000000000000E2
:101F00000000000000003FE00000001FFE00000095
:101F100000000000000000000000000000000000C1
:101F200000000000000000000000000000000000B1
:101F300000000000000000007FE00000000FFF0034
:101F40000000000000000000000000000000000091
:101F50000000000000000000000000000000000081
:101F6000000000000000000000007FC0000000072B
:101F7000FF800000000000000000000000000000E2
:101F80000000000000000000000000000000000051
:101F9000000000000000000000000000FFC0000082
:101FA0000003FFE00000000000000000000000004F
:101FB00000000080000000000000000000000000A1
:101FC0000000000000000000000000000000FFC052
:101FD00000000001FFF00000000000000000000011
:101FE00000000000004000000000000000000000B1
:101FF00000000000000000000000000000000000E1
:10200000FFC000000000FFF800000000000000001A
:1020100000000000000000100000000000000000B0
:1020200000000000000000000000000000000000B0
:102030000000FF80000000007FFC000000000000A6
:102040000000000000000000000800000000000088
:102050000000000000000000000000000000000080
:1020600000000001FF80000000003FFE00000000B3
:10207000000000000000000000000004000000005C
:102080000000000000000000000000000000000050
:10209000000000000001FF80000000000FFF0000B2
:1020A000000000000000000000000000000200002E
:1020B0000000000000000000000000000000000020
:1020C0000000000000000001FF800000000007FF8A
:1020D000800000000000000000000000000000017F
:1020E00000000000000000000000000000000000F0
:1020F00000000000000000000001FF800000000060
:1021000003FFE000000000000000000000000000ED
:10211000000180000000000000000000000000003E
:10212000000000000000000000000001FFC00000EF
:10213000000001FFF00000000000000000000000AF
:1021400000000000C00000000000000000000000CF
:102150000000000000000000000000000001FFC0BF
:102160000000000000FFF800000000000000000078
:1021700000000000000060000000000000000000FF
:10218000000000000000000000000000000000014E
:10219000FFC000000000007FFC0000000000000005
:1021A00000000000000000006000000000000000CF
:1021B000000000000000000000000000000000001F
:1021C0000000FFC000000000001FFF000000000032
:1021D00000000000000000000000300000000000CF
:1021E00000000000000000000000000000000000EF
:1021F00000000000FFE000000000000FFF80000072
:1022000000000000000000000000000018000000B6
:1022100000000000000000000000000000000000BE
:10222000000000000000FFE0000000000007FFC009
:102230000000000000000000000000000000180086
:10224000000000000000000000000000000000008E
:1022500000000000000000007FF00000000000010E
:10226000FFF000000000000000000000000000007F
:102270001C00000000000000000000000000000042
:10228000000000000000000000007FF000000000DF
:102290000000FFF800000000000000000000000047
:1022A00000000C0000000000000000000000000022
:1022B0000000000000000000000000007FF80000A7
:1022C000000000007FFC0000000000000000000093
:1022D000000000000E0000000000000000000000F0
:1022E00000000000000000000000000000003FFCB3
:1022F0000000000000001FFF0000000000000000C0
:1023000000000000000006000000000000000000C7
:1023100000000000000000000000000000000000BD
:102320001FFC0000000000000FFF80000000000004
:102330000000000000000000060000000000000097
:10234000000000000000000000000000000000008D
:1023500000001FFE00000000000007FFE00000007A
:102360000000000000000000000007000000000066
:10237000000000000000000000000000000000005D
:10238000000000000FFF00000000000001FFF80047
:10239000000000000000000000000000030000003A
:1023A000000000000000000000000000000000002D
:1023B00000000000000007FF80000000000000FF98
:1023C000FC0000000000000000000000000003000E
:1023D00000000000000000000000000000000000FD
:1023E000000000000000000003FFC000000000002B
:1023F000003FFF000000000000000000000000009F
:102400000380000000000000000000000000000049
:102410000000000000000000000003FFE0000000DA
:102420000000001FFFC000000000000000000000CE
:102430000000038000000000000000000000000019
:1024400000000000000000000000000001FFF0009C
:10245000000000000007FFE0000000000000000096
:1024600000000000038000000000000000000000E9
:10247000000000000000000000000000000000FF5D
:10248000FC00000000000001FFF800000000000058
:1024900000000000000003800000000000000000B9
:1024A000000000000000000000000000000000002C
:1024B000007FFE00000000000000FFFE00000000A2
:1024C000000000000000000003C000000000000049
:1024D00000000000000000000000000000000000FC
:1024E0000000001FFF000000000000003FFF800010
:1024F0000000000000000000000043C000000000D9
:1025000000000000000000000000000000000000CB
:1025100000000000000FFFC00000000000000FFFDF
:10252000E0000000000000000000000083C0000088
:10253000000000000000000000000000000000009B
:102540000000000000000007FFE0000000000000A5
:1025500007FFF8000000000000000000000103C0B9
:10256000000000000000000000000000000000006B
:1025700000000000000000000001FFF80000000063
:10258000000001FFFE00000000000000000000024B
:1025900003C0000000000000000000000000000078
:1025A000000000000000000000000000FFFE00002E
:1025B00000000000007FFF8000000000000000001D
:1025C000000401C000000000000000000000000046
:1025D00000000000000000000000000000003FFFBD
:1025E000800000000000001FFFF00000000000005D
:1025F0000000000803C00000000000000000000010
:1026000000000000000000000000000000000000CA
:102610001FFFE000000000000007FFFC00000000BA
:1026200000000000003003C00000000000000000B7
:10263000000000000000000000000000000000009A
:10264000000007FFF800000000000001FFFF00008D
:10265000000000000000006003C000000000000057
:10266000000000000000000000000000000000006A
:102670000000000001FFFE000000000000003FFF1E
:10268000C000000000000000018003C00000000046
:10269000000000000000000000000000000000003A
:1026A000000000000000007FFFC0000000000000EC
:1026B0000FFFFC00000000000000070003C0000046
:1026C000000000000000000000000000000000000A
:1026D0000000000000000000001FFFF000000000EC
:1026E000000003FFFF800000000000001E0003C088
:1026F00000000000000000000000000000000000DA
:10270000000000000000000000000007FFFE0000C5
:1027100000000000007FFFF0000000000000F80053
:1027200003C00000000000000000000000000000E6
:102730000000000000000000000000000001FFFF9A
:10274000C00000000000001FFFFF000000000003A9
:10275000E00003C0000000000000000000000000D6
:102760000000000000000000000000000000000069
:102770003FFFF000000000000081FFFFF0000000BC
:10278000001F800007800000000000000000000023
:102790000000000000000000000000000000000039
:1027A000000007FFFF000000000000807FFFFFC067
:1027B000000003FE00000780000000000000000091
:1027C0000000000000000000000000000000000009
:1027D0000000000001FFFFF000000000000007FF04
:1027E000FFFFC001FEF800000780000000000000AD
:1027F00000000000000000000000000000000000D9
:10280000000000000000001FFFFF000000000000AB
:10281000007FFFFFFFFFFFC00000078000000000F7
:1028200000000000000000000000000000000000A8
:1028300000000000000000000003FFFFF80000009F
:102840000000000FFFFFFFFFFE0000000F800000F0
:102850000000000000000000000000000000000078
:102860000000000000000000000000003FFFFF80AB
:102870000000010000003FFFFFFFE00000000F002C
:102880000000000000000000000000000000000048
:10289000000000000000000000000000000007FF32
:1028A000FFFF000001000000003FFFD1000000001A
:1028B0000F00000000000000000000000000000009
:1028C0000000000000000000000000000000000008
:1028D000007FFFFFFC00010000000001FFFC000082
:1028E00000001F00000000000000000000000000C9
:1028F00000000000000000000000000000000000D8
:1029000000000001FFFFFFFF0100000007FFFF00C4
:10291000000000001F000000000000000000000098
:1029200000000000000000000000000000000000A7
:102930000000000000001FFFFFFFFFFFFFFFFFFF81
:10294000E000000000001E00000000000000000089
:102950000000000000000000000000000000000077
:102960000000000000000000003FFFFFFFFFFFFF2E
:10297000FFF80000000000003E0000000000000022
:102980000000000000000000000000000000000047
:102990000000000000000000000000001FFFFFFF1B
:1029A000FFFFF8000000000000003C0000000000F5
:1029B0000000000000000000000000000000000017
:1029C0000000000000000000000000000000000106
:1029D000FFFFFF8000000000000000007C000000FE
:1029E00000000000000000000000000000000000E7
:1029F00000000000000000000000000000000000D7
:102A000000000100000000000000000000007C0049
:102A100000000000000000000000000000000000B6
:102A200000000000000000000000000000000000A6
:102A30000000000001000000000000000000000095
:102A4000F80000000000000000000000000000008E
:102A50000000000000000000000000000000000076
:102A60000000000000000200000000000000000064
:102A70000000F8000000000000000000000000005E
:102A80000000000000000000000000000000000046
:102A90000000000000000000010000000000000035
:102AA00000000001F0000000000000000000000035
:102AB0000000000000000000000000000000000016
:102AC0000000000000000000000003000000000003
:102AD000000000000003F000000000000000000003
:102AE00000000000000000000000000000000000E6
:102AF00000000000000000000000000001000000D5
:102B00000000000000000003E000000000000000E2
:102B100000000000000000000000000000000000B5
:102B200000000000000000000000000000000100A4
:102B300000000000000000000007E00000000000AE
:102B40000000000000000000000000000000000085
:102B50000000000000000000000000000000000075
:102B6000010000000000000000000007C00000009D
:102B70000000000000000000000000000000000055
:102B80000000000000000000000000000000000045
:102B9000000001000000000000000000000FC00065
:102BA0000000000000000000000000000000000025
:102BB0000000000000000000000000000000000015
:102BC0000000000001800000000000000000001F65
:102BD0008000000000000000000000000000000075
:102BE00000000000000000000000000000000000E5
:102BF0000000000000000180000000000000000054
:102C0000003F000000000000000000000000000085
:102C100000000000000000000000000000000000B4
:102C20000000000000000000008000000000000024
:102C30000000007F00000000000000000000000015
:102C40000000000000000000000000000000000084
:102C50000000000000000000000000C000000000B4
:102C600000000000007E00000000000000000000E6
:102C70000000000000000000000000000000000054
:102C800000000000000000000000000000C0000084
:102C900000000000000000FC000000000000000038
:102CA0000000000000000000000000000000000024
:102CB000000000000000000000000000000000C054
:102CC000000000000000000001FC00000000000007
:102CD00000000000000000000000000000000000F4
:102CE00000000000000000000000000000000000E4
:102CF0000060000000000000000003F80000000079
:102D000000000000000000000000000000000000C3
:102D100000000000000000000000000000000000B3
:102D200000000060000000000000000007F000004C
:102D30000000000000000000000000000000000093
:102D40000000000000000000000000000000000083
:102D500000000000007000000000000000000FE014
:102D60000000000000000000000000000000000063
:102D70000000000000000000000000000000000053
:102D80000000000000000030000000000000000013
:102D90001FC0000000000000000000000000000054
:102DA0000000000000000000000000000000000023
:102DB00000000000000000000038000000000000DB
:102DC00000003F8000000000000000000000000044
:102DD00000000000000000000000000000000000F3
:102DE00000000000000000000000001800000000CB
:102DF000000000007F000000000000000000000054
:102E000000000000000000000000000000000000C2
:102E1000000000000000000000000000001C000096
:102E2000000000000000FE000000000000000000A4
:102E30000000000000000000000000000000000092
:102E40000000000000000000000000000000000E74
:102E50000000000000000001FC0000000000000075
:102E60000000000000000000000000000000000062
:102E70000000000000000000000000000000000052
:102E8000000F0000000000000007F8000000000034
:102E90000000000000000000000000000000000032
:102EA0000000000000000000000000000000000022
:102EB00000000007800000000000000FF00000008C
:102EC0000000000000000000000000000000000002
:102ED00000000000000000000000000000000000F2
:102EE000000000000003C00000000000001FE00020
:102EF00000000000000000000000000000000000D2
:102F000000000000000000000000000000000000C1
:102F10000000000000000001E00000000000007F51
:102F2000C0000000000000000000000000000000E1
:102F30000000000000000000000000000000000091
:102F400000000000000000000001F0000000000090
:102F500001FF8000000000000000000000000000F1
:102F60000000000000000000000000000000000061
:102F7000000000000000000000000000F800000059
:102F8000000003FE00000000000000000000000040
:102F90000000000000000000000000000000000031
:102FA00000000000000000000000000000007E00A3
:102FB000000000000FFC0000000000000000000006
:102FC0000000000000000000000000000000000001
:102FD00000000000000000000000000000000000F1
:102FE0003F00000000003FF0000000000000000073
:102FF00000000000000000000000000000000000D1
:1030000000000000000000000000000000000000C0
:1030100000001FC000000000FFE0000000000000F2
:1030200000000000000000000000000000000000A0
:103030000000000000000000000000000000000090
:103040000000000007F000000007FF800000000003
:103050000000000000000000000000000000000070
:103060000000000000000000000000000000000060
:1030700000000000000003FC0000003FFE00000014
:103080000000000000000000000000000000000040
:103090000000000000000000000000000000000030
:1030A000000000000000000000FFC00003FFF80067
:1030B0000000000000000000000000000000000010
:1030C0000000000000000000000000000000000000
:1030D00000000000000000000000007FFFC3FFFFB1
:1030E000E000000000000000000000000000000000
:1030F00000000000000000000000000000000000D0
:10310000000000000000000000000000001FFFFFA2
:10311000FFFF0000000000000000000000000000B1
:10312000000000000000000000000000000000009F
:10313000000000000000000000000000000000038C
:10314000FFFFFFFC00000000000000000000000086
:10315000000000000000000000000000000000006F
:10316000000000000000000000000000000000005F
:103170000000FFFFFFC00000000000000000000092
:10318000000000000000000000000000000000003F
:10319000000000000000000000000000000000002F
:1031A0000000000007FFF800000000000000000021
:1031B000000000000000000000000000000000000F
:1031C00000000000000000000000000000000000FF
:1031D00000000000000000000000000000000000EF
:1031E00000000000000000000000000000000000DF
:1031F00000000000000000000000000000000000CF
:1032000000000000000000000000000000000000BE
:1032100000000000000000000000000000000000AE
:10322000000000000000000000000000000000009E
:10323000000000000000000000000000000000008E
:10324000000000000000000000000000000000007E
:1032500000000000000000006E616E00696E6600F4
:1032600000407A10F35A00A0724E18090010A5D43D
:10327000E80000E87648170000E40B54020000CA9A
:103280009A3B000000E1F5050000809698000000E0
:1032900040420F000000A08601000000102700003F
:1032A0000000E803000000006400000000000A00C5
:1032B000000000000100000000002C76D888DC67C8
:1032C0004F0823DFC1DFAE59E1B1B796E5E3E45320
:1032D000C63AE651997696E8E6C28426EB898C9B3D
:1032E00062ED407C6FFCEFBC9C9F40F2BAA56FA5DD
:1032F000F490055A2AF75C936B6CF9676DC11BFC5F
:10330000E0E40D47FEF520E6B500D0ED902E030079
:10331000943577050080841E080000204E0A0000C6
:1033200000C80C333333330F986E12831141EF8D85
:103330002114893BE65516CFFEE6DB18D1844B38C5
:103340001BF77C1D901DA4BBE424203284725E22F6
:103350008100C9F124ECA1E53D2711241FBECFEF68
:10336000CDBFDFE9DEBF00E00CBF1CE5A0E0B0E2AE
:10337000EEEFFBE600E00BBF02C007900D92A03617
:10338000B107D9F72BE8A0E6BCE501C01D92A7392B
:10339000B207E1F70E942D2F0C94FD350C9400002C
:1033A000992787FD9095A92FB92FFC01B097EF358C
:1033B000F10508F03EC2E250FF4F0C94C33382E0A7
:1033C000FB0180838FEE91E5089582E0FB0180830D
:1033D00089E991E5089583E0FB01808388E191E527
:1033E000089584E0FB0180838CE690E5089583E0F6
:1033F000FB0180838BEE9FE4089586E0FB018083D0
:1034000089EE9EE4089584E0FB0180838DE39EE4D1
:10341000089582E0FB01808387EE9DE4089582E0B9
:10342000FB01808381E99DE4089582E0FB018083B4
:103430008BE39DE4089583E0FB0180838AEB9CE4A9
:10344000089584E0FB0180838EE09CE4089582E08F
:10345000FB01808388EB9BE4089582E0FB0180837D
:1034600082E69BE4089582E0FB0180838CE09BE48C
:10347000089583E0FB0180838BE89AE4089583E05C
:10348000FB0180838AE09AE4089583E0FB01808356
:1034900089E899E4089583E0FB01808388E099E45A
:1034A000089583E0FB01808387E898E4089583E032
:1034B000FB01808386E098E4089583E0FB0180832C
:1034C00085E897E4089583E0FB01808384E097E436
:1034D000089583E0FB01808383E896E4089583E008
:1034E000FB01808382E096E4089583E0FB01808302
:1034F00081E895E4089582E0FB0180838BE295E406
:10350000089582E0FB01808385ED94E4089584E0D2
:10351000FB01808389E294E4089584E0FB018083C9
:103520008DE793E4089584E0FB01808381ED92E4CC
:10353000089583E0FB01808380E592E4089585E0AF
:10354000FB01808389E791E4089584E0FB01808397
:103550008DEC90E4089584E0FB01808381E290E4A7
:10356000089583E0FB01808380EA9FE3089584E06F
:10357000FB01808384EF9EE3089583E0FB01808359
:1035800083E79EE3089583E0FB01808382EF9DE360
:10359000089584E0FB01808386E49DE3089584E040
:1035A000FB0180838AE99CE3089583E0FB0180832B
:1035B00089E19CE3089583E0FB01808388E99BE334
:1035C000089584E0FB0180838CEE9AE3089583E004
:1035D000FB0180838BE69AE3089584E0FB018083FE
:1035E0008FEB99E3089584E0FB01808383E199E305
:1035F000089584E0FB01808387E698E3089583E0E3
:10360000FB01808386EE97E3089584E0FB018083CD
:103610008AE397E3089584E0FB0180838EE896E3D4
:10362000089583E0FB0180838DE096E3089583E0B5
:10363000FB0180838CE895E3089584E0FB0180839F
:1036400080EE94E3089583E0FB0180838FE594E3AB
:10365000089585E0FB01808388E893E3089584E082
:10366000FB0180838CED92E3089584E0FB0180836D
:1036700080E392E3089583E0FB0180838FEA91E386
:10368000089582E0FB01808389E591E3089583E05A
:10369000FB01808388ED90E3089582E0FB01808345
:1036A00082E890E3089584E0FB01808386ED9FE249
:1036B000089583E0FB01808385E59FE2089583E020
:1036C000FB01808384ED9EE2089583E0FB0180830B
:1036D00083E59EE2089583E0FB01808382ED9DE215
:1036E000089583E0FB01808381E59DE2089583E0F6
:1036F000FB01808380ED9CE2089583E0FB018083E1
:103700008FE49CE2089582E0FB01808389EF9BE2D5
:10371000089583E0FB01808388E79BE2089583E0BE
:10372000FB01808387EF9AE2089582E0FB018083AA
:1037300081EA9AE2089582E0FB0180838BE49AE2B9
:10374000089583E0FB0180838AEC99E2089582E08A
:10375000FB01808384E799E2089585E0FB01808383
:103760008DE998E2089583E0FB0180838CE198E283
:10377000089583E0FB0180838BE997E2089583E05D
:10378000FB0180838AE197E2089583E0FB01808357
:1037900089E996E2089582E0FB01808383E496E262
:1037A000089583E0FB01808382EC95E2089582E036
:1037B000FB0180838CE695E2089583E0FB01808322
:1037C0008BEE94E2089583E0FB0180838AE694E225
:1037D000089584E0FB0180838EEB93E2089583E0FB
:1037E000FB0180838DE393E2089583E0FB018083F6
:1037F0008CEB92E2089583E0FB0180838BE392E2FD
:10380000089583E0FB0180838AEB91E2089583E0D1
:10381000FB01808389E391E2089583E0FB018083CB
:1038200088EB90E2089584E0FB0180838CE090E2D5
:10383000089582E0FB01808385E492E508956AE9BA
:103840007CE580E092E0BFD040EA5CE561E080E0AA
:1038500092E0F5D0EAE9FCE58081ABE9BCE59C911A
:103860009F789C93817E8061808310929C5C85E030
:1038700080939D5CBF0180E092E066D040EA5CE509
:1038800061E080E092E0BFD041E050E061E080EA9A
:1038900096E00E943E2A41E050E062E080EA96E035
:1038A0000C943E2A08958115924061F48091605CE9
:1038B00091E0980F9093605C811104C062E081E018
:1038C0000C94172A08958115924059F48091605CF8
:1038D00081508093605C811104C062E081E00C94AF
:1038E000232A08951F920F920FB60F9211240BB640
:1038F0000F922F933F934F935F936F937F938F9389
:103900009F93AF93BF93EF93FF93E0E0F2E044A166
:1039100055A1E091A45CF091A55C61E080E092E0AB
:103920001995FF91EF91BF91AF919F918F917F91E9
:103930006F915F914F913F912F910F900BBE0F9020
:103940000FBE0F901F901895DF92EF92FF920F938A
:103950001F93CF93DF93EC018B01C11582E0D80751
:1039600051F561E270E082E00E942E2AE82EF12CEF
:1039700060E270E082E00E942E2AFE2CEE24E82A0B
:10398000DFB6F894CE018FDF2881217082E0888332
:10399000EC86FD86F80184819581888F998F8181DD
:1039A0008A8383818C8382818B838081898328832E
:1039B000CE0189DFDFBEDF91CF911F910F91FF9084
:1039C000EF90DF900895FF920F931F93CF93DF93B3
:1039D000EC018B01FFB6F89466DF888D998DF801B4
:1039E000848395838A8181838C8183838B81828385
:1039F00089818083CE0167DFFFBEDF91CF911F9168
:103A00000F91FF900895FF920F931F93CF93DF9331
:103A1000EC018A01FFB6F89446DFF801808188A3A3
:103A200082818AA3818189A383818EA3CE014BDF0A
:103A3000FFBEDF91CF911F910F91FF900895FF92EC
:103A40000F931F93CF93DF93EC018A01FFB6F89495
:103A50002ADF88A1F80180838AA1828389A18183DA
:103A60008EA18383CE012FDFFFBEDF91CF911F9107
:103A70000F91FF900895992787FD9095A92FB92F51
:103A8000FC01B097EF35F10508F03EC2E35AFE4F56
:103A90000C94C33381E0FB0180838AE19CE50895A7
:103AA00081E0FB01808389E09CE5089581E0FB01D2
:103AB000808388EF9BE5089582E0FB01808386ED9B
:103AC0009BE5089582E0FB01808384EB9BE50895EC
:103AD00082E0FB01808382E99BE5089582E0FB019F
:103AE000808380E79BE5089581E0FB0180838FE57B
:103AF0009BE5089581E0FB0180838EE49BE50895BA
:103B000081E0FB0180838DE39BE5089581E0FB016B
:103B100080838CE29BE5089581E0FB0180838BE14B
:103B20009BE5089581E0FB0180838AE09BE5089591
:103B300081E0FB01808389EF9AE5089581E0FB0134
:103B4000808388EE9AE5089581E0FB01808387ED0C
:103B50009AE5089582E0FB01808385EB9AE508955C
:103B600082E0FB01808383E99AE5089582E0FB010E
:103B7000808381E79AE5089582E0FB0180838FE4EA
:103B80009AE5089582E0FB0180838DE29AE508952D
:103B900082E0FB0180838BE09AE5089582E0FB01DF
:103BA000808389EE99E5089582E0FB01808387ECAC
:103BB00099E5089582E0FB01808385EA99E50895FF
:103BC00082E0FB01808383E899E5089581E0FB01B1
:103BD000808382E799E5089581E0FB01808381E697
:103BE00099E5089581E0FB01808380E599E50895DA
:103BF00081E0FB0180838FE399E5089581E0FB017B
:103C000080838EE299E5089581E0FB0180838DE158
:103C100099E5089582E0FB0180838BEF98E5089594
:103C200082E0FB01808389ED98E5089582E0FB0145
:103C3000808387EB98E5089582E0FB01808385E926
:103C400098E5089582E0FB01808383E798E5089575
:103C500082E0FB01808381E598E5089581E0FB0126
:103C6000808380E498E5089582E0FB0180838EE103
:103C700098E5089582E0FB0180838CEF97E5089535
:103C800081E0FB0180838BEE97E5089581E0FB01E5
:103C900080838AED97E5089582E0FB01808388EBBD
:103CA00097E5089581E0FB01808387EA97E5089511
:103CB00082E0FB01808385E897E5089582E0FB01BF
:103CC000808383E697E5089582E0FB01808381E4A9
:103CD00097E5089582E0FB0180838FE197E50895E1
:103CE00082E0FB0180838DEF96E5089582E0FB0181
:103CF00080838BED96E5089582E0FB01808389EB5C
:103D000096E5089581E0FB01808388EA96E50895B1
:103D100082E0FB01808386E896E5089582E0FB015E
:103D2000808384E696E5089582E0FB01808382E447
:103D300096E5089582E0FB01808380E296E5089590
:103D400082E0FB0180838EEF95E5089582E0FB0120
:103D500080838CED95E5089581E0FB0180838BECF9
:103D600095E5089581E0FB0180838AEB95E5089550
:103D700081E0FB01808389EA95E5089581E0FB01FC
:103D8000808388E995E5089581E0FB01808387E8D9
:103D900095E5089581E0FB01808386E795E5089528
:103DA00082E0FB01808384E595E5089582E0FB01D4
:103DB000808382E395E5089581E0FB01808381E2C1
:103DC00095E5089582E0FB0180838FEF94E50895E7
:103DD00081E0FB0180838EEE94E5089581E0FB0194
:103DE00080838DED94E5089582E0FB0180838BEB69
:103DF00094E5089582E0FB01808389E994E50895C4
:103E000081E0FB01808388E894E5089581E0FB016F
:103E1000808387E794E5089582E0FB01808385E550
:103E200094E5089581E0FB01808384E494E508959E
:103E300082E0FB01808382E294E5089582E0FB0149
:103E4000808380E094E5089582E0FB0180838EED1D
:103E500093E5089582E0FB0180838CEB93E5089560
:103E600082E0FB0180838AE993E5089581E0FB010C
:103E7000808389E893E5089581E0FB01808388E7EA
:103E800093E5089581E0FB01808387E693E508953B
:103E900082E0FB01808385E493E5089581E0FB01E6
:103EA000808384E393E5089582E0FB01808382E1CF
:103EB00093E5089581E0FB01808381E093E5089517
:103EC00081E0FB01808380EF92E5089581E0FB01B2
:103ED00080838FED92E5089581E0FB0180838EEC75
:103EE00092E5089581E0FB0180838DEB92E50895D2
:103EF00081E0FB0180838CEA92E5089581E0FB017B
:103F000080838BE992E5089582E0FB0180838BE258
:103F10009CE508952F923F924F925F926F927F920D
:103F20008F929F92AF92BF92CF92DF92EF92FF92C9
:103F30000F931F93CF93DF93CDB7DEB7C859D1400E
:103F4000CDBFDEBF0E94E22C89E190E089839A8395
:103F500089E790E0C753DF4F88839983C95CD040DD
:103F60002AE130E02B833C83C553DF4F888399835C
:103F7000CB5CD0402BE130E02D833E83C353DF4F39
:103F800088839983CD5CD0402CE130E02F83388743
:103F9000C153DF4F88839983CF5CD04084E090E0A9
:103FA0008093A85C9093A95CCF56DE4F188219824B
:103FB000C159D140C12CD12CBB24B394212C68947D
:103FC000332432F89E012F5F3F4F49013E0139EC07
:103FD000630E711CCB56DE4F8882C559D140CA563C
:103FE000DE4F9882C659D140C956DE4F6882C75904
:103FF000D140C856DE4F7882C859D1400F2EF0EA22
:104000004F2EF6E05F2EF02DE980FA80C7010E9466
:104010003834BB2009F495C082E08093E507032D76
:1040200010E0000F111F080D191DC32CD12C68942E
:10403000BB24B1F8A32CCD56DE4F88829982C35998
:10404000D140922C16010E9435346EE170E00E943E
:104050008E336C01CC0CDD1CCC0CDD1CCC0CDD1CBF
:104060004FEFC41AD40A0E94353462E370E00E9414
:104070008E3301961092A85C1092A95C121413045E
:104080008CF5CB56DE4FE881C559D140CA56DE4F7C
:10409000F881C659D140C956DE4FA881C759D140D1
:1040A000C856DE4FB881C859D14040E021913191C6
:1040B0002817390731F42D913C9111972C153D05A6
:1040C00019F0442321F001C041E0B092E6071296B6
:1040D000E017F10759F72092A85C3092A95C4111D2
:1040E000B2CF16C03A2C292CCF56DE4FC882D982C7
:1040F000C159D1406C01CD56DE4F88809980C3599B
:10410000D140682FCF56DE4F8881C159D14015C0AC
:104110003A2C292CCF56DE4FC882D982C159D140C2
:104120006C01CD56DE4F88809980C359D140682FED
:10413000CF56DE4F8881C159D14040E00E94E52E24
:10414000B12C1092A85C1092A95C032D10E01016FF
:104150001106E4F480E090E0880F991FF401E80F65
:10416000F91FD301A80FB91F21E040816C9181E0B4
:104170000E94662E8091A85C9091A95C0196809324
:10418000A85C9093A95C8017910734F3D3010D903C
:10419000BC91A02DCD56DE4FA883B983C359D14021
:1041A0001092A85C1092A95CA80141505109141604
:1041B000150604F5F401D301632D70E09B01220F75
:1041C000331F8FEF9FEF8C0F9D1F280F391F8281A8
:1041D00093818193919312968D919C9113978D93D6
:1041E0009D93E217F30799F7615071096093A85CFA
:1041F0007093A95CFA01EE0FFF1FE60DF71D808199
:104200009181CF56DE4FA881B981C159D1408A171B
:104210009B0709F05FC0FA01EE0FFF1FE80DF91DC3
:10422000808191818C159D0509F054C03394832DB4
:1042300090E001978093A85C9093A95C18161906EA
:10424000E4F5232D30E0BC01660F771FF401E60F83
:10425000F71F220F331FC401820F931F660D771DB6
:10426000A9015E01B3E0AB0EB11C31952195310976
:104270003297D901AE0FBF1FA40FB51F0D911C912E
:104280000297DC01A20FB31FA40FB51F0D931C935F
:1042900062507109DB01A20FB31FA40FB51F0D916E
:1042A0001C91119712960D931C9313978A159B05D9
:1042B000F9F61092A85C1092A95CE982FA82CD56B8
:1042C000DE4F28813981C359D140F30120833183E6
:1042D000BB24B39431E0231609F485C0231648F0BB
:1042E00042E0241609F4F5C053E0251609F466C12E
:1042F000DFC1032D10E001501109F801EE0FFF1F7F
:10430000E80DF91D208131812F5F3F4FC90163E323
:1043100070E00E948E33892B41F0F801EE0FFF1FF1
:10432000E80DF91D2083318309C0F801EE0FFF1F4E
:10433000E80DF91D81E090E0808391831092A85CE4
:104340001092A95C101611060CF0B4C1F801EE0F22
:10435000FF1FE80DF91D20813181CB56DE4FE8812A
:10436000C559D140CA56DE4FF881C659D140832D78
:1043700090E0880F991F6FEF7FEF6C0F7D1F860F06
:10438000971FF12C000F111F060D171DCD56DE4F84
:1043900068827982C359D1404191519124173507E0
:1043A00081F4D8016D917C91CD56DE4FA881B98101
:1043B000C359D1404D915C916417750711F4FF24E6
:1043C000F394CD56DE4F48815981C359D1404E5F99
:1043D0005F4FCD56DE4F48835983C359D140E8170C
:1043E000F907D1F66EC1432D50E041505109FA0151
:1043F000EE0FFF1FE60DF71D8081918108971816BB
:10440000190644F4FA01EE0FFF1FE60DF71D808335
:10441000918309C0FA01EE0FFF1FE60DF71D89EE2B
:1044200090E0808391831092A85C1092A95C14168E
:1044300015060CF041C1FA01EE0FFF1FE80DF91D42
:1044400020813181CB56DE4FE881C559D140CA5613
:10445000DE4FF881C659D140832D90E0880F991F17
:104460006FEF7FEF6C0F7D1F860F971FF12C8A0176
:10447000000F111F060D171DCD56DE4F6882798281
:10448000C359D140419151912417350781F4D80186
:104490006D917C91CD56DE4FA881B981C359D14031
:1044A0004D915C916417750711F4FF24F394CD5678
:1044B000DE4F48815981C359D1404E5F5F4FCD5681
:1044C000DE4F48835983C359D140E817F907D1F625
:1044D000F8C0432D50E041505109FA01EE0FFF1F83
:1044E000E80DF91D808191810197009741F0FA0153
:1044F000EE0FFF1FE80DF91D8083918309C0FA01BB
:10450000EE0FFF1FE80DF91D62E370E06083718319
:104510001092A85C1092A95C141615060CF0CEC07F
:10452000FA01EE0FFF1FE80DF91D20813181CB56F6
:10453000DE4FE881C559D140CA56DE4FF881C659D1
:10454000D140832D90E0880F991F6FEF7FEF6C0FA4
:104550007D1F860F971FF12C8A01000F111F060D7A
:10456000171DCD56DE4F68827982C359D1404191E3
:1045700051912417350781F4D8016D917C91CD5666
:10458000DE4FA881B981C359D1404D915C91641728
:10459000750711F4FF24F394CD56DE4F48815981FD
:1045A000C359D1404E5F5F4FCD56DE4F488359838C
:1045B000C359D140E817F907D1F683C0032D10E0A5
:1045C00001501109F801EE0FFF1FE60DF71D2081C4
:1045D0003181285F3F4FC90161EF70E00E948E3347
:1045E000892B41F0F801EE0FFF1FE60DF71D208328
:1045F000318309C0F801EE0FFF1FE60DF71D81E0C2
:1046000090E0808391831092A85C1092A95C1016B0
:1046100011060CF055C0F801EE0FFF1FE80DF91D53
:1046200020813181CB56DE4FE881C559D140CA5631
:10463000DE4FF881C659D140832D90E0880F991F35
:104640006FEF7FEF6C0F7D1F860F971FF12C000F10
:10465000111F060D171DCD56DE4F68827982C35992
:10466000D140419151912417350781F4D8016D91C2
:104670007C91CD56DE4FA881B981C359D1404D916F
:104680005C916417750711F4FF24F394CD56DE4F47
:1046900048815981C359D1404E5F5F4FCD56DE4F9F
:1046A00048835983C359D140E817F907D1F609C0A7
:1046B000F12C07C0F12C05C0F12C03C0F12C01C076
:1046C000F12C1092A85C1092A95C032D10E010163A
:1046D0001106DCF4E0E0F0E0EE0FFF1FD401AE0FB6
:1046E000BF1FE60DF71D20E04C91608181E00E9424
:1046F000662EE091A85CF091A95C3196E093A85CED
:10470000F093A95CE017F1073CF30E94B02DFF2065
:10471000A1F000E023E144E161E18DE49CE50E9429
:10472000092E0E94B02D80E090E00196823C52EA72
:104730009507D9F70E94E22C52C081E090E0809367
:10474000A85C9093A95C30910A20D20118962C9114
:10475000189722FF04C018962C9124FD03C0332320
:1047600091F101C031E0F201208524FD13C0809356
:10477000A85C9093A95C30930A202394822D8370C7
:1047800009F4212C80E090E001968131F4E09F074C
:10479000D9F73ACC208522FD16C08093A85C90936F
:1047A000A95C30930A202A94B3E0B21520F40F2EAE
:1047B000F3E02F2EF02D80E090E001968131E4E0CF
:1047C0009E07D9F721CC0196181619060CF4BDCF17
:1047D0008093A85C9093A95C30930A2015CCC856AE
:1047E000DE4FCDBFDEBFDF91CF911F910F91FF90C4
:1047F000EF90DF90CF90BF90AF909F908F907F9081
:104800006F905F904F903F902F900895982F990F41
:104810009A7A86958575982B892F880F880F8C7CBE
:10482000969596959373892B82950895CF93DF93F0
:10483000EC01C03C28E0D20721F468E083E0F7D522
:1048400006C0803C994019F468E084E0F0D5888186
:1048500080618883DF91CF910895FF920F931F931A
:10486000CF93DF93EC01F42EB901A80108E418EE10
:1048700021E030E04CD088234CF088819F2D990FA7
:10488000990F9C70837FF92EF82AF882DF91CF91DF
:104890001F910F91FF900895FC01DB01460F571FF8
:1048A00005C08D91838382818823ECF7A417B50717
:1048B000C1F780E00895FB018081E82FE695E69539
:1048C000E69540E2E49FF0011124FA5F877021E051
:1048D00030E0A90102C0440F551F8A95E2F74683D4
:1048E0000895FB018081E82FE695E695E69540E284
:1048F000E49FF0011124FA5F877021E030E0A90104
:1049000002C0440F551F8A95E2F745830895CF9260
:10491000DF92EF92FF920F931F93CF93DF93EC01FF
:104920006A017B01DB01CA010197A109B109BC0140
:10493000CD01600F711F821F931FA70196010E9476
:10494000A1332138310541055105F8F4213460F4D3
:10495000213260F4213160F4293060F4253060F4B4
:10496000233060F090E00BC093E009C092E007C0F4
:1049700092E805C091E003C091E801C090E8888109
:104980008C77892B888381E001C08FEFDF91CF91F5
:104990001F910F91FF90EF90DF90CF9008951F929D
:1049A0000F920FB60F9211240BB60F922F933F93D5
:1049B0004F935F936F937F938F939F93AF93BF9327
:1049C000EF93FF93E091975CF091985C309709F03A
:1049D0001995FF91EF91BF91AF919F918F917F9129
:1049E0006F915F914F913F912F910F900BBE0F9060
:1049F0000FBE0F901F9018951F920F920FB60F9237
:104A000011240BB60F922F933F934F935F936F93A5
:104A10007F938F939F93AF93BF93EF93FF93E09117
:104A2000955CF091965C309709F01995FF91EF91A4
:104A3000BF91AF919F918F917F916F915F914F91B6
:104A40003F912F910F900BBE0F900FBE0F901F90B4
:104A500018951F920F920FB60F9211240BB60F925A
:104A60002F933F934F935F936F937F938F939F9376
:104A7000AF93BF93EF93FF93E091935CF091945CBD
:104A8000309709F01995FF91EF91BF91AF919F91E8
:104A90008F917F916F915F914F913F912F910F90E7
:104AA0000BBE0F900FBE0F901F9018951F920F9284
:104AB0000FB60F9211240BB60F922F933F934F9383
:104AC0005F936F937F938F939F93AF93BF93EF9376
:104AD000FF93E091915CF091925C309709F0199509
:104AE000FF91EF91BF91AF919F918F917F916F91C6
:104AF0005F914F913F912F910F900BBE0F900FBE82
:104B00000F901F9018951F920F920FB60F921124BD
:104B10000BB60F922F933F934F935F936F937F93B7
:104B20008F939F93AF93BF93EF93FF93E0918F5C2D
:104B3000F091905C309709F01995FF91EF91BF913A
:104B4000AF919F918F917F916F915F914F913F9125
:104B50002F910F900BBE0F900FBE0F901F901895C6
:104B60001F920F920FB60F9211240BB60F922F9334
:104B70003F934F935F936F937F938F939F93AF93E5
:104B8000BF93EF93FF93E0918D5CF0918E5C309733
:104B900009F01995FF91EF91BF91AF919F918F917E
:104BA0007F916F915F914F913F912F910F900BBE2D
:104BB0000F900FBE0F901F9018951F920F920FB677
:104BC0000F9211240BB60F922F933F934F935F9345
:104BD0006F937F938F939F93AF93BF93EF93FF93C5
:104BE000E0918B5CF0918C5C309709F01995FF9106
:104BF000EF91BF91AF919F918F917F916F915F9155
:104C00004F913F912F910F900BBE0F900FBE0F90C1
:104C10001F9018951F920F920FB60F9211240BB68A
:104C20000F922F933F934F935F936F937F938F9345
:104C30009F93AF93BF93EF93FF93E091895CF091C3
:104C40008A5C309709F01995FF91EF91BF91AF9170
:104C50009F918F917F916F915F914F913F912F9194
:104C60000F900BBE0F900FBE0F901F9018951F92C4
:104C70000F920FB60F9211240BB60F922F933F9302
:104C80004F935F936F937F938F939F93AF93BF9354
:104C9000EF93FF93E091875CF091885C309709F087
:104CA0001995FF91EF91BF91AF919F918F917F9156
:104CB0006F915F914F913F912F910F900BBE0F908D
:104CC0000FBE0F901F9018951F920F920FB60F9264
:104CD00011240BB60F922F933F934F935F936F93D3
:104CE0007F938F939F93AF93BF93EF93FF93E09145
:104CF000855CF091865C309709F01995FF91EF91F2
:104D0000BF91AF919F918F917F916F915F914F91E3
:104D10003F912F910F900BBE0F900FBE0F901F90E1
:104D200018951F920F920FB60F9211240BB60F9287
:104D30002F933F934F935F936F937F938F939F93A3
:104D4000AF93BF93EF93FF93E091835CF091845C0A
:104D5000309709F01995FF91EF91BF91AF919F9115
:104D60008F917F916F915F914F913F912F910F9014
:104D70000BBE0F900FBE0F901F9018951F920F92B1
:104D80000FB60F9211240BB60F922F933F934F93B0
:104D90005F936F937F938F939F93AF93BF93EF93A3
:104DA000FF93E091815CF091825C309709F0199556
:104DB000FF91EF91BF91AF919F918F917F916F91F3
:104DC0005F914F913F912F910F900BBE0F900FBEAF
:104DD0000F901F9018951F920F920FB60F921124EB
:104DE0000BB60F922F933F934F935F936F937F93E5
:104DF0008F939F93AF93BF93EF93FF93E0917F5C6B
:104E0000F091805C309709F01995FF91EF91BF9177
:104E1000AF919F918F917F916F915F914F913F9152
:104E20002F910F900BBE0F900FBE0F901F901895F3
:104E30001F920F920FB60F9211240BB60F922F9361
:104E40003F934F935F936F937F938F939F93AF9312
:104E5000BF93EF93FF93E0917D5CF0917E5C309780
:104E600009F01995FF91EF91BF91AF919F918F91AB
:104E70007F916F915F914F913F912F910F900BBE5A
:104E80000F900FBE0F901F9018951F920F920FB6A4
:104E90000F9211240BB60F922F933F934F935F9372
:104EA0006F937F938F939F93AF93BF93EF93FF93F2
:104EB000E0917B5CF0917C5C309709F01995FF9153
:104EC000EF91BF91AF919F918F917F916F915F9182
:104ED0004F913F912F910F900BBE0F900FBE0F90EF
:104EE0001F9018951F920F920FB60F9211240BB6B8
:104EF0000F922F933F934F935F936F937F938F9373
:104F00009F93AF93BF93EF93FF93E091795CF09100
:104F10007A5C309709F01995FF91EF91BF91AF91AD
:104F20009F918F917F916F915F914F913F912F91C1
:104F30000F900BBE0F900FBE0F901F9018951F92F1
:104F40000F920FB60F9211240BB60F922F933F932F
:104F50004F935F936F937F938F939F93AF93BF9381
:104F6000EF93FF93E091775CF091785C309709F0D4
:104F70001995FF91EF91BF91AF919F918F917F9183
:104F80006F915F914F913F912F910F900BBE0F90BA
:104F90000FBE0F901F9018951F920F920FB60F9291
:104FA00011240BB60F922F933F934F935F936F9300
:104FB0007F938F939F93AF93BF93EF93FF93E09172
:104FC000755CF091765C309709F01995FF91EF913F
:104FD000BF91AF919F918F917F916F915F914F9111
:104FE0003F912F910F900BBE0F900FBE0F901F900F
:104FF00018951F920F920FB60F9211240BB60F92B5
:105000002F933F934F935F936F937F938F939F93D0
:10501000AF93BF93EF93FF93E091735CF091745C57
:10502000309709F01995FF91EF91BF91AF919F9142
:105030008F917F916F915F914F913F912F910F9041
:105040000BBE0F900FBE0F901F9018951F920F92DE
:105050000FB60F9211240BB60F922F933F934F93DD
:105060005F936F937F938F939F93AF93BF93EF93D0
:10507000FF93E091715CF091725C309709F01995A3
:10508000FF91EF91BF91AF919F918F917F916F9120
:105090005F914F913F912F910F900BBE0F900FBEDC
:1050A0000F901F9018951F920F920FB60F92112418
:1050B0000BB60F922F933F934F935F936F937F9312
:1050C0008F939F93AF93BF93EF93FF93E0916F5CA8
:1050D000F091705C309709F01995FF91EF91BF91B5
:1050E000AF919F918F917F916F915F914F913F9180
:1050F0002F910F900BBE0F900FBE0F901F90189521
:105100001F920F920FB60F9211240BB60F922F938E
:105110003F934F935F936F937F938F939F93AF933F
:10512000BF93EF93FF93E0916D5CF0916E5C3097CD
:1051300009F01995FF91EF91BF91AF919F918F91D8
:105140007F916F915F914F913F912F910F900BBE87
:105150000F900FBE0F901F9018951F920F920FB6D1
:105160000F9211240BB60F922F933F934F935F939F
:105170006F937F938F939F93AF93BF93EF93FF931F
:10518000E0916B5CF0916C5C309709F01995FF91A0
:10519000EF91BF91AF919F918F917F916F915F91AF
:1051A0004F913F912F910F900BBE0F900FBE0F901C
:1051B0001F9018951F920F920FB60F9211240BB6E5
:1051C0000F922F933F934F935F936F937F938F93A0
:1051D0009F93AF93BF93EF93FF93E091695CF0913E
:1051E0006A5C309709F01995FF91EF91BF91AF91EB
:1051F0009F918F917F916F915F914F913F912F91EF
:105200000F900BBE0F900FBE0F901F9018951F921E
:105210000F920FB60F9211240BB60F922F933F935C
:105220004F935F936F937F938F939F93AF93BF93AE
:10523000EF93FF93E091675CF091685C309709F021
:105240001995FF91EF91BF91AF919F918F917F91B0
:105250006F915F914F913F912F910F900BBE0F90E7
:105260000FBE0F901F9018951F920F920FB60F92BE
:1052700011240BB60F922F933F934F935F936F932D
:105280007F938F939F93AF93BF93EF93FF93E0919F
:10529000655CF091665C309709F01995FF91EF918C
:1052A000BF91AF919F918F917F916F915F914F913E
:1052B0003F912F910F900BBE0F900FBE0F901F903C
:1052C00018951F920F920FB60F9211240BB60F92E2
:1052D0002F933F934F935F936F937F938F939F93FE
:1052E000AF93BF93EF93FF93E091635CF091645CA5
:1052F000309709F01995FF91EF91BF91AF919F9170
:105300008F917F916F915F914F913F912F910F906E
:105310000BBE0F900FBE0F901F9018951F920F920B
:105320000FB60F9211240BB60F922F933F934F930A
:105330005F936F937F938F939F93AF93BF93EF93FD
:10534000FF93E091615CF091625C309709F01995F0
:10535000FF91EF91BF91AF919F918F917F916F914D
:105360005F914F913F912F910F900BBE0F900FBE09
:105370000F901F901895CF93CFB7F894282F392FFF
:10538000211588E0380739F461E083E050D064E00B
:1053900083E04DD02DC0203488E0380739F462E036
:1053A00083E045D064E083E042D022C0211589E04B
:1053B000380739F461E084E03AD064E084E037D023
:1053C00017C021158AE0380739F461E085E02FD055
:1053D00064E085E02CD00CC021153B4039F461E03D
:1053E00086E025D064E086E022D002C0CFBF09C0AD
:1053F0008FB7F894EBEAFCE590819F5F90838FBFB5
:10540000CFBFCF9108958FEF80937000809371008C
:105410008093720080937300809374008093750072
:10542000809376006EE081E490E022C008959FB7FB
:10543000F894E82FF0E0E059FF4F609580816823F1
:1054400060839FBF08959FB7F894E82FF0E0E0597C
:10545000FF4F8081682B60839FBF08954091CA01F0
:10546000E62FF72F8093CA0184914093CA010895D3
:105470001BBEFC0128ED24BF60830895CF93DF930A
:10548000FC01709620E030E0C62FD0E0DE01022E55
:1054900002C0B595A7950A94E2F7A0FD50832F5F4F
:1054A0003F4F31962830310589F740FF0AC041FF50
:1054B00003C0FC01658302C0FC016683FC016183BB
:1054C00002C0FC016283DF91CF91089543E050E078
:1054D00061E080EE97E0D2DF43E050E062E080EEF2
:1054E00097E0CCDF43E050E060E180E696E0C6DF85
:1054F00041E050E460E280E696E0C0DF40E05BE13E
:1055000062E080EA96E0BADF40E05BE164E080EAD6
:1055100096E0B4DF43E050E068E080EA96E0AEDF7A
:1055200043E050E061E080E696E0A8DF43E050E031
:1055300068E080E096E0A2DF43E050E060E280E8CF
:1055400096E09CDF40E05BE160E180E896E096DF7A
:1055500043E050E062E080E696E090DF43E050E018
:1055600068E080E696E08ADF40E050E064E080E6B4
:1055700096E084DF40E050E061E080E096E07EDF8E
:1055800040E050E062E080E096E078DF40E050E00C
:1055900064E080E096E072DF41E050E061E080EAA4
:1055A00096E06CDF43E050E068E080E496E066DF80
:1055B00040E050E064E080E496E060DF43E050E0EB
:1055C00068E080E696E05ADF40E050E064E080E684
:1055D00096E054DF43E050E068E080E896E04EDF7C
:1055E00040E050E064E080E896E048CF0895CF9234
:1055F000DF92EF92FF92CF93DF93EC016B01E12CEE
:10560000F12C68E478EE81E090E0A70196010E9419
:10561000A133CA01B9012FEF3FEF40E050E00E94F3
:10562000A1332115310529F481E08C8321E030E09C
:105630002DC02230310528F482E08C8322E030E056
:1056400025C02430310528F483E08C8324E030E049
:105650001DC02830310528F484E08C8328E030E038
:1056600015C02034310528F485E08C8320E430E037
:105670000DC02F3F310509F028F486E08C8320E02F
:1056800031E004C087E08C8320E034E040E050E06B
:1056900068E478EE81E090E00E94A133CA01B9018C
:1056A000A70196010E94A1332D833E832436310544
:1056B00018F41C821D821E82DF91CF91FF90EF9023
:1056C000DF90CF9008950F931F93CF93DF93EC015A
:1056D00089016230B9F128F4662351F06130E9F0B4
:1056E0006FC0643009F443C0663009F455C068C027
:1056F00080E098E088839983E0E4F6E0508121E03F
:1057000030E08FEF840FB90102C0660F771F8A95D2
:10571000E2F7CB01852B808353C080E498E0888337
:105720009983E0E4F6E0508121E030E083E0840FEB
:10573000B90102C0660F771F8A95E2F7CB01852B6E
:1057400080833EC080E099E088839983E0E6F6E0BC
:10575000508121E030E08FEF840FB90102C0660F65
:10576000771F8A95E2F7CB01852B808329C080E0E3
:105770009AE088839983E0E8F6E0508121E030E008
:105780008FEF840FB90102C0660F771F8A95E2F789
:10579000CB01852B808314C080E09BE088839983B4
:1057A000E0EAF6E0508121E030E08FEF840FB901AC
:1057B00002C0660F771F8A95E2F7CB01852B8083A5
:1057C0004A83423061F018F4413031F010C0433068
:1057D00049F0443051F00BC080E18B8308C080E277
:1057E0008B8305C080E48B8302C080E88B83888133
:1057F0009981C1DDE881F9818181887F836081831E
:105800001D821E821C82E881F9818081807F8083D5
:10581000B801CE01ECDEDF91CF911F910F91089579
:10582000CF93DF93EC01AD81BE81262F30E0B1D75D
:1058300024E630E040E050E084D78A81E881F981B5
:10584000E6FD17C0823061F018F4813031F01BC0E2
:10585000833049F0843051F016C020AF31AF13C00F
:1058600022AF33AF10C024AF35AF0DC026AF37AF76
:105870000AC0813019F0823021F005C020AF31AF6D
:1058800002C022AF33AF8D819E81E881F98186A36A
:1058900097A38B81E881F981E6FD04C09181892B72
:1058A000818304C091818073892B8183E881F98190
:1058B0008081807F9C81892B8083DF91CF910895A7
:1058C00043E050E061E080E496E0D8DD43E050E062
:1058D00062E080E496E0D2DD40E058E164E080EAF6
:1058E00096E0CCDD40E058E168E080EA96E0C6DD75
:1058F00040E058E160E180EA96E0C0DD40E058E138
:1059000060E280EA96E0BADD43E050E060E180E4E6
:1059100096E0B4DD43E050E060E280E496E0AEDD86
:1059200040E050E060E480E496E0A8DD43E050E031
:1059300060E880E496E0A2CD0895CF92DF92EF92E6
:10594000FF920F931F9380EC98E00E941624C12CC5
:10595000D12C760100E814E82EE130E040E06BE065
:1059600070E280EC98E00E942D24E0ECF8E0808169
:10597000806480831F910F91FF90EF90DF90CF9014
:1059800008959EDF21E030E043E060E080E99BE89D
:105990009ADE62E380E99BE843DFCFCF089581E0A0
:1059A000E0E4F6E0858308956BE070E280EC98E037
:1059B0000C94712408956BE070E280EC98E00C94F4
:1059C0005B240895CF93DF931F921F92CDB7DEB76C
:1059D00080E289831A82E8DF42E050E0BE016F5F17
:1059E0007F4F80EC98E00E944C24E0ECF8E082814C
:1059F0008823ECF7E0DF40EE5EE26FEF70E080EBD3
:105A00009CE50E942F350F900F90DF91CF91089564
:105A100040EE5EE26FEF70E080EB9CE50C942F357A
:105A200008951F93CF93DF93EC01162F862F0E94CA
:105A30000624E0ECF8E08383A0ECB8E012969C9199
:105A400012979923DCF742E350E0BE0180EC98E026
:105A50000E944C24812F90E0019722E3289FD001DF
:105A6000299FB00D1124A055B34A82E3FE01019095
:105A70000D928A95E1F7E0ECF8E082818823ECF75B
:105A8000E0ECF8E0138282818823ECF7DF91CF917C
:105A90001F9108951F93CF93DF93EC01162F84DF9E
:105AA00080E8E0ECF8E0838382818823ECF7612FC3
:105AB000CE01B7DFE0ECF8E0138282818823ECF7B7
:105AC0007ADFDF91CF911F9108950F931F93CF93AA
:105AD000DF93082F192F68DF80E8E0ECF8E083837C
